:020000041000EA
:1000000000B5324B212058609868022188439860DF
:10001000D860186158612E4B002199600221596106
:100020000121F02299502B49196001219960352056
:1000300000F044F80222904214D00621196600F024
:1000400034F8196E01211966002018661A6600F04E
:100050002CF8196E196E196E052000F02FF8012189
:100060000842F9D1002199601B49196000215960AB
:100070001A491B48016001219960EB211966A021F2
:10008000196600F012F800219960164914480160C1
:100090000121996001BC002800D000471248134993
:1000A000086003C880F30888084703B5996A0420EC
:1000B0000142FBD001200142F8D103BD02B5186610
:1000C0001866FFF7F2FF186E186E02BD00000240BE
:1000D000000000180000070000035F00212200005C
:1000E000F4000018222000A00001001008ED00E03C
:1000F00000000000000000000000000074B24E7A12
:1001000000200420F7010010C3010010C5010010F9
:10011000C1010010C1010010C1010010C101001097
:10012000C1010010C1010010C1010010C701001081
:10013000C1010010C1010010C9010010CB01001065
:10014000CD010010CD010010CD010010CD01001037
:10015000CD010010CD010010CD010010CD01001027
:10016000CD010010CD010010CD010010CD01001017
:10017000CD010010CD010010CD010010CD01001007
:10018000CD010010CD010010CD010010CD010010F7
:10019000CD010010CD010010CD010010CD010010E7
:1001A000CD010010CD010010CD010010CD010010D7
:1001B000CD010010CD010010CD010010CD010010C7
:1001C00000BE00BE00BE00BE00BE00BE00F04BF888
:1001D000103800BEF2EB8871F47E0110207F011010
:1001E0003402001090A31AE700202149086006C8D5
:1001F00081F3088810471F48006800282FD10DA4FC
:100200000ECC002902D000F012F8F9E71A491B4A77
:10021000002000E001C19142FCD1194988471949E9
:1002200088471949884700BEFDE701C901C29A42C3
:10023000FBD37047207F0110C0000020481201202E
:10024000A89002100000042000000420A8900210D2
:1002500000100420001004200000000070470B482C
:1002600005F050F80047EFF30580C0B2704700007A
:1002700008ED00E0000000D0481201207460012069
:10028000A5370010BD180010B938001057560000EF
:1002900006005250ABB360536C5B01100600525025
:1002A000861C03027C5B0110060052505422A29D62
:1002B000885B011005005250DE65F468A8900210BA
:1002C000F8B5C0460448054B10B5834203D0044B33
:1002D000002B00D0984710BD481201204812012081
:1002E0000000000006480749091A8B10C90FC918F9
:1002F00010B5491003D0044B002B00D0984710BD17
:1003000048120120481201200000000010B5074CDF
:100310002378002B09D1FFF7D5FF054B002B02D026
:10032000044800E000BF0123237010BD50130120DA
:100330000000000058470110054B10B5002B03D0FA
:100340000449054800E000BFFFF7CCFF10BDC046E0
:1003500000000000541301205847011070477047F7
:10036000014B01221A607047E41D01207047000014
:10037000F0B5DE4657464E464546E0B585B0D0233B
:100380001B065A685D682D09012215405968596895
:10039000C909114000915B689B081A4001929A4B71
:1003A0001A689A4B9A4208D0531C9949492088549C
:1003B000984A13402DD4944A1360934B1A68934B78
:1003C0009A4208D0531C92494E208854914A1340B7
:1003D00024D48D4A13608C4B1A688C4B9A4208D0F7
:1003E000531C8B49492088548A4A13401BD4864A9F
:1003F0001360854B1A68854B9A4200D16AE1531C01
:10040000834954208854834A134011D47E4A136090
:1004100060E1013B804A13430133CCE7013B7E4A54
:1004200013430133D5E7013B7B4A13430133DEE736
:10043000013B794A13430133E8E7002A00D066E123
:10044000002E00D082E0704F3F68B9466F4FB9452B
:1004500015D001244C44A3466D4C4F466323E3550D
:100460005B46DB17DB0C9A46D946D1444B46DB048E
:10047000DB0C54461B1B9946634B4C461C60674F74
:10048000B9463F68BA460227BB46DA444F4654464F
:100490003C603C68A24601245746A7434C4627606F
:1004A0005F4C2478630747D55C4B9A461B689B4694
:1004B000FF235C461C4053461C60534C2468A146F5
:1004C000524CA14516D0554B1B6801244C44A34601
:1004D0004F4C4F46E3555B46DB17DB0C9A46D9463B
:1004E000D1444B46DB04DB0C54461B1B9946464B60
:1004F0004C461C60444C2468A146444CA14500D1A4
:1005000005E1464B1B681B129A4601244C44A34646
:100510003F4F4B465446FC545B46DB17DB0C9A4678
:10052000D946D1444B46DB04DB0C54461B1B994691
:10053000354B4C461C60EAE0384B9A461B681B045E
:100540001B0C994653464C461C60B6E72E4C24685B
:10055000A1462E4CA14500D1D9E001244C44A3462C
:100560002B4B4C467A271F555B46DB17DB0C9A4614
:10057000D946D1444B46DB04DB0C54461B1B994641
:10058000214B4C461C60C2E01F4D2D68AC461F4DF0
:10059000AC4500D114E16446631C1D4CA1465A24AD
:1005A000A2464C4667465546E555DC17E40CA44682
:1005B0006344DD04ED0C2D1B134C256000E1002E7F
:1005C00030D0404600282DD00F4804680F488442A0
:1005D0000BD0601C0E4D69232B55C417E40C001979
:1005E000C004C00C001B084C2060D02000068024F2
:1005F00024058461FF242402446280246400446151
:10060000FE242402846120E0281E0120FF1F000038
:10061000FC2D0120FF1F008000E0FFFF081E0120CD
:100620001C070020D0200006802424058461FF24BC
:1006300024024462814D2D68814F3F683D43814FC4
:100640007D5D2D0245616C4084610198012800D1D7
:10065000D4E00098002839D1002E37D07A480468B9
:100660007A4884420BD0601C794D52262E55C4170F
:10067000E40C0019C004C00C001B734C20607248CD
:100680000468724884420BD0601C714D45262E557B
:10069000C417E40C0019C004C00C001B6A4C206095
:1006A00069480468694884420BD0601C684D532631
:1006B0002E55C417E40C0019C004C00C001B624C7A
:1006C000206000205D4C20605D4C2060029B019307
:1006D00000911500D0273F067868C0080123184014
:1006E0007A681209190011408C460A007C68A40936
:1006F0001C4003947968C9091E000E4031007F68D0
:10070000BF081F40B8460297012D00D195E6002D85
:1007100056D16546002D53D0002E00D034E7474D0A
:10072000AC462D6801273D4367463D60464D2D6828
:10073000AC46464DAC4512D06446631C444CA146C1
:100740004324A2464C4667465546E555DC17E40C63
:10075000A4466344DD04ED0C2D1B3B4C25603A4D53
:100760002D68AC46394DAC4511D0344D2C68A246AD
:100770006446631C364C67465546E555DC17E40C69
:10078000A4466344DD04ED0C2D1B2F4C25602E4D3B
:100790002D68AC462D4DAC4512D0284D2D682C123D
:1007A000A1466446631C2A4C67464D46E555DC1756
:1007B000E40CA4466344DD04ED0C2D1B224C2560A3
:1007C000002800D041E7039B002B00D1F7E6D020A2
:1007D0000006FF24240284628024240544614461CD
:1007E00040680012C0B2002E00D02EE7134C2468DF
:1007F000134D2D682C43134D285526E740460028FD
:1008000000D026E710480468104884420BD0601CD2
:100810000F4D50272F55C417E40C0019C004C00C0D
:10082000001B094C2060064804680134FF34046052
:100830000468FE25ED012C4004600AE7081E012033
:100840000C1E01201C070020281E0120FF1F000095
:10085000FC2D012082B00023019308E0009B0133AE
:100860000093009B092BF9DD019B01330193019B50
:10087000834202DA00230093F3E702B07047D023EB
:100880001B06802149055962802292025A629961B1
:100890009A61704710B50120002102F051FB10BD94
:1008A000D0231B06802252055A629A617047D023DA
:1008B0001B06802252059A627047D0231B068022B5
:1008C00092025A629A617047D0231B0680229202DC
:1008D0009A627047D0231B065B681B0F01201840EB
:1008E000704710B50400FFF7DBFF2000FFF7D2FFD1
:1008F0002000FFF7E2FF2000FFF7CCFF10BD10B58E
:100900000400FFF7E1FF2000FFF7C4FF2000FFF71E
:10091000CEFF2000FFF7BEFF10BD70B504000D0034
:10092000002614E02000FFF7C2FF2000FFF7B2FF0F
:100930002000FFF7C9FF2000FFF7ACFF2000FFF702
:10094000BCFF2000FFF7A6FF6D00EDB20136072EB9
:1009500006DC6BB2002BE5DB2000FFF7A1FFE4E72C
:100960002000FFF7A4FF2000FFF7AEFF2000FFF7F5
:1009700091FF64252000FFF7ADFF002803D0013D63
:10098000002DF7D100E001252000FFF796FF2000A1
:10099000FFF780FF280070BD10B51C2001F09CFC03
:1009A000112001F099FC10BDF8B5CE46474680B540
:1009B00006000F0015009846089B99460068FFF74F
:1009C00090FF31794900C9B23068FFF7A6FF43466E
:1009D000002B01D000240AE040213068FFF79DFF82
:1009E000F8E780213068FFF798FF05E00134BC424A
:1009F0000BDA4346002BF4D129783068FFF78DFFDE
:100A00004B46002BF2D10135F0E73068FFF777FF56
:100A10000CBC90469946F8BD10B584B00400812303
:100A20006A4613730802401A642104F097FC6B466F
:100A3000587300230093013303AA02212000FFF71B
:100A4000B3FF04B010BD70B584B0CC17640E0919A3
:100A50007F231940091BD3179B0ED2183F24224035
:100A6000D21AD317383C1C40A418E410503C03AAF7
:100A70001470CD172E0F8C190F231C40A41B54701B
:100A80002B405B181B11103393700023009301332C
:100A90000321FFF789FF04B070BD00B585B00F22B8
:100AA0006A440023137000930121FFF77DFF05B016
:100AB00000BD0000F0B5C64600B582B005000E00CE
:100AC00008000EF0EBFD07000024BC4213DA731C93
:100AD00098463378203B9A00D218094BD21800234D
:100AE000009305212800FFF75FFF2800FFF7D5FFDF
:100AF00001344646E9E702B004BC9046F0BDC0466A
:100B0000444A011030B583B0050000240DE02200F6
:100B100000212800FFF797FF012300930023054AD7
:100B200080212800FFF740FF08343F2CEFDD03B0A1
:100B300030BDC046501E012070B50500084C200095
:100B4000FFF7E0FF002200212000FFF77CFF2900D3
:100B50002000FFF7AFFF0348FFF77CFE70BDC046E3
:100B600014070020C0C62D0010B582B00400006834
:100B7000FFF785FE00230C4A934201DC0133FAE7BC
:100B80002068FFF7AEFE2068FFF7B9FE0023009350
:100B90000133064A1E212000FFF706FF2000FFF761
:100BA000B1FF02B010BDC0460F270000244C011059
:100BB00010B5094B00221A700132084908480BF0A1
:100BC000B5FB002803D1044B01221A7010BD054863
:100BD000FFF7B2FFFAE7C0464E1E0120584701104A
:100BE000385B01205C47011010B50022024900204B
:100BF0000BF09CFB10BDC0465847011003000020BD
:100C00001A780C2A02D001301033F9E7704700003F
:100C100070B58AB0040020480CF0B4F81F480CF0FE
:100C2000C3F8002802D100200AB070BD2000FFF7F1
:100C300069FF002200212000FFF705FF6D46184BD9
:100C40002A0043CB43C21B88138029002000FFF7F2
:100C500031FF082200212000FFF7F5FE114B2A008A
:100C600003CB03C21B88138029002000FFF722FF5B
:100C7000102200212000FFF7E6FE084B1A680092C0
:100C80001B792B7129002000FFF714FF0648FFF79E
:100C9000E1FD0120C8E7C046584701106847011030
:100CA0007047011080470110C0C62D0010B5324CAE
:100CB000A5440023314A13606093FB22002161A800
:100CC00005F0DAFB2E48FFF7A3FF002803D0A0238E
:100CD0009B009D4410BDFF2160A80CF0C3F8041ECA
:100CE00021D160A9274805F065FD582200214AA8B6
:100CF00005F0C2FB90225200002102A805F0BCFBC7
:100D0000214B00221A60214B60AA02A94AA80CF0CC
:100D100014FA041E13D00DF025FB010022001C481C
:100D200005F048FDD3E70DF01DFB01002200194836
:100D300005F040FDCBE702A94AA80CF0E5F9002830
:100D400015D102AB9B7E002B11D002AB1B7BDB06C7
:100D5000F1D401AA1049222068440EF0B3FB019B94
:100D6000094A12689342E6DD074A1360E3E74AA89E
:100D70000CF07BF9ABE7C04680FDFFFF581E012059
:100D800014070020A8470110D81D0120C0470110FA
:100D9000CC4701108C470110E8470110F0B5C6465A
:100DA00000B56D4CA54405008846FFF701FF2800FB
:100DB000FFF72EFF041E38D12800FFF7A3FE002204
:100DC00000212800FFF73FFEB4AE644B320083CB16
:100DD00083C21B78137031002800FFF76BFE0822D6
:100DE00000212800FFF72FFE414630000EF04EFC98
:100DF00031002800FFF75EFE5948FFF72BFD012266
:100E000041461CA80BF0C0FA002811D100231A9308
:100E100001AB06AA534940460EF054FB02282DD0E0
:100E2000002398462700002640E0FFF7DDFE8DE016
:100E3000B4AC4D4B220043CB43C21B681360280067
:100E4000FFF760FE002200212800FFF7FCFD2100D3
:100E50002800FFF72FFE072200212800FFF7F3FDEF
:100E6000414620000EF012FC21002800FFF722FE70
:100E70003E48FFF7EFFCFFF7B7FE67E03C4901A8EB
:100E80000EF0C0FB061E09D000239846CAE71AAB35
:100E900001221BA91CA80BF025FC0136052EF6DD4E
:100EA00001239846BEE7220093420CDC002E11D1AC
:100EB0001AAB01221BA91CA80BF014FC1A9B002BD7
:100EC000F1D10126F2E71BA9885C2A49C8550132F5
:100ED0000137E9E71CA80BF03EFF10220021280093
:100EE000FFF7B1FD3A002449B4A804F0DFF9B4A932
:100EF0002800FFF7DFFD4346002B22D01D4B682260
:100F00001A70643A5A7052329A700022DA700332C0
:100F10001A71013A5A7133329A711132DA71002121
:100F200009E0144A135D601C125C1B02D21892B2D5
:100F3000511889B20234072CF3DD0E4B0A0A1A72DB
:100F400059720A48FFF786FCFFF74EFEBE239B004E
:100F50009D4404BC9046F0BD08FDFFFFF44701101E
:100F600040420F001448011004480110C0C62D0073
:100F7000944801101C07002020480110F0B5C7B0AC
:100F80000400FFF715FE2000FFF742FE002859D1AC
:100F90002000FFF7B7FD002200212000FFF753FDDE
:100FA0003CAD5E4B2F0006CB06C71A883A809B7873
:100FB000BB7029002000FFF77DFD082200212000E2
:100FC000FFF741FD564E2A00330003CB03C21A88B7
:100FD0003A809B78BB7029002000FFF76BFD5148D9
:100FE000FFF738FC504930000DF096FA071E54D137
:100FF0003CAD4E4B2A0043CB43C21B68136020001C
:10100000FFF780FD002200212000FFF71CFD2900D2
:101010002000FFF74FFD072200212000FFF713FDFE
:101020003F4B2A0003CB03C2198811809B78937031
:1010300029002000FFF73EFD3D48FFF70BFCFFF7BE
:10104000D3FD68E0FFF7D0FD65E03A4D14A9280014
:101050000EF01CFB29003848FFF7A0FE4FE0374D8B
:101060002A00374914A80EF02DFA29683248FFF7F4
:10107000D3FC2000FFF746FD002200212000FFF7EF
:10108000E2FC2A682F493CA804F010F93CA9200092
:10109000FFF710FD2648FFF7DDFB3A004F2128A897
:1010A0000DF077FA002831D028AD28000EF0F6FABE
:1010B000013800232B546A46137014AE337020009D
:1010C000FFF720FD002200212000FFF7BCFC2A00D2
:1010D0001D493CA804F0EAF83CA92000FFF7EAFC0F
:1010E0001348FFF7B7FB33006A46184928000EF093
:1010F000E9F9174968460EF085FA0028A5D0154988
:1011000068460EF07FFA0028C7D1A8E738000DF036
:101110002AFAFFF769FD47B0F0BDC046304801101C
:101120003C48011040420F00104A011004480110D1
:10113000C0C62D00044E01201407002060060020C8
:1011400074480110784801104848011050480110B7
:101150005C4801106848011010B53B4CA5440023C1
:101160000D93FFF725FD3948FFF752FD002855D1B3
:10117000FFF79CFD364B1A6801321A603549A7A863
:1011800004F094F8314C2000FFF7BCFC0022002151
:101190002000FFF758FC30492000FFF78BFC0822A5
:1011A00000212000FFF74FFCA7A92000FFF782FCD9
:1011B0000622A7A90EA80BF0E7F8002801D00828FE
:1011C00032D1264B1A6801929A8801AB9A800DABF6
:1011D000062201A90EA80BF0AEFB80220DAB520235
:1011E0001F490EA80BF0A7FB0D9B06330D930EA80D
:1011F0000BF0B1FD041E1DD1144C1822002120005B
:10120000FFF721FC0D9A174903A804F04FF803A932
:101210002000FFF74FFCFFF7E7FC01E0FFF7E4FCDD
:10122000AC239B009D4410BD0F48FFF785FCFFF7E2
:10123000DBFCF5E70DF096F8010022000B4805F005
:10124000B9FAFFF7D1FCEBE750FDFFFF14070020D0
:10125000D81D01208C480110984801103C4A01100B
:101260001C070020C4480110A0480110AC48011020
:10127000F0B58FB007002C4B1E68FFF743FC01252B
:101280006D42002412E0103610E07268274901A870
:1012900004F00CF81EE0E20000213800FFF7D3FB59
:1012A00001A93800FFF706FC1036013433780C2B07
:1012B0001FD001351E4B1B68AB42E4DCEB1A032B3D
:1012C00017DC1C4B1B68AB42DFD072681A4901A8BF
:1012D00003F0ECFF33780A2BDDD00B2BE4D1E200D6
:1012E00000213800FFF7AFFB01A93800FFF7E2FB50
:1012F000DAE70D4B1868FFF781FC0E4B1B6898422C
:1013000002DC01380B4B1860022C0ADCE2000021E1
:101310003800FFF798FB09493800FFF7CBFB013491
:10132000F2E70FB0F0BDC046004E0120D0480110DA
:10133000DC1D0120E01D0120D8480110E04801100B
:10134000F0B55A4CA5440023594A13607C93FB2204
:1013500000217DA805F090F8FFF72AFC5548FFF71B
:1013600057FC041E29D154480BF00CFDFF217CA82A
:101370000BF078FD051E23D17CA9504805F01AFA20
:101380005822002166A805F077F89022520000212B
:101390001EA805F071F84A4B7CAA1EA966A80BF09E
:1013A000CCFE051E1BD00CF0DDFF01002A004548D5
:1013B00005F000FAFFF718FC73E0FFF715FC70E08A
:1013C0000CF0D0FF01002A003F4805F0F3F9FFF7C9
:1013D0000BFC66E001341EA966A80BF095FE002800
:1013E0003BD11EAB9B7E002B37D0314B1B68C72BEC
:1013F00033DC1EAB1B7BDB06EDD400236A46137087
:101400006B460AAA3149922068440EF05BF8002826
:10141000E1D02F4968460EF0F5F80028DBD12D4BBE
:101420001B68A342D6DC224F3E68B500AD19AD0063
:10143000294BED1814229221694428000EF062F91C
:10144000264A310153185D600A20885400229A60B0
:10145000234ADA6001363E60BCE766A80BF005FE61
:10146000134B1A681D4910010B181E4C5C600C24AC
:101470004454002199601A49D960002A01D01A4BBE
:101480001A601A4B1A4A9A601A4A5A611A4A1A6220
:1014900012491A4B196000220648FFF7E9FEFFF7D0
:1014A000A3FBBD239B009D44F0BDC0460CFDFFFF88
:1014B000581E01201407002058470110F048011061
:1014C00008490110CC4701108C4701101448011045
:1014D00094480110C81901205C1E01201C4E0120F7
:1014E0005D030010A4470110C4190120AC5A01206B
:1014F000511600109516001035150010004E0120F1
:1015000010B50023064A1360064A1360064B19689B
:10151000064B196001220648FFF7AAFE10BDC0461F
:10152000E01D0120DC1D0120A05D0120004E0120F6
:1015300014070020F0B5CE46474680B58BB0264B49
:1015400099461B681A01254B9B185968244E300098
:101550000EF09CF800239846224B42461A60224D1A
:101560002800FFF7CFFA002200212800FFF76BFACE
:101570006C461E4B220083CB83C219001B8813804C
:101580008B78937021002800FFF794FA0E22002137
:101590002800FFF758FA310020000EF077F82100FC
:1015A0002800FFF787FA1248FFF754F931002800A6
:1015B000FFF7F4FB43464A4613600020FFF7A0FF05
:1015C0000C4B0D4A9A600D4A5A610D4A1A620BB0D3
:1015D0000CBC90469946F0BDE01D01201C4E012038
:1015E000044E0120C8190120140700200C490110E5
:1015F000C0C62D00AC5A01205116001095160010DF
:101600008517001010B50548FFF724F9044B196839
:1016100001220448FFF72CFE10BDC046C0C62D00B5
:10162000004E01201407002010B50120FFF794FDA3
:101630000448FFF70FF9044B196801220348FFF72C
:1016400017FE10BDC0C62D00004E0120140700205B
:1016500010B50C4A1368013B1360002B0EDD0A4BDA
:101660001A68084B1B689A4201DD074A1360074B52
:10167000196800220648FFF7FBFD10BD1300002289
:101680001A60ECE7E01D0120DC1D0120004E012066
:101690001407002070B5124B1E68751C1D60114B9D
:1016A0001C682000FFF7AAFA854211D00C4B1B687A
:1016B0000D4A12689A1A022A04DD023B0A4A136094
:1016C000002B08DB002221000848FFF7D1FD70BD88
:1016D000034B1E60EAE7130000221A60F2E7C046DF
:1016E000E01D0120004E0120DC1D01201407002018
:1016F00010B5064C06492000FFF750FB054B196852
:1017000001222000FFF7B4FD10BDC04614070020E1
:10171000044E0120004E012070B58AB00023632BD7
:1017200004DC134AFF21D1540133F8E7114C2000A7
:10173000FFF7E8F9002200212000FFF784F969464D
:101740000D4B0A0061CB61C218001B88138083789F
:1017500093702000FFF7AEF90848FFF77BF8084BBD
:10176000196801222000FFF783FD0AB070BDC04652
:101770001C070020140700201C490110C0C62D00C2
:10178000004E012070B50E4B1C68002509E00C4B83
:10179000A2681A600122A1680A48FFF769FD0135B5
:1017A000103423780C2B09D0074A1268AA42F6D1CC
:1017B0000B2BECD02000E3689847F0E770BDC046E3
:1017C000004E012014070020E01D012010B500226A
:1017D0000BE00B4B5100881884000020E0501B19CF
:1017E00018715871074999600132022AF1DD044BE2
:1017F000054A9A60054A5A61054A1A6210BDC046F8
:10180000AC5A01206D0300105116001095160010FF
:101810008517001010B500242BE063001B199A00F7
:10182000244BD358002B0BDD013B620012199100B1
:10183000204A8B50002B03D11E4B5B1800221A71DB
:1018400063001B199A001B4B9B185B79002B08D077
:10185000184B9B181B79002B03D1164B9B189B68C8
:101860009847620012199100124B5B181A795A714D
:101870000134022C1CDCA3000F4A9A58D0231B060B
:101880005B68D340DB07C8D463001B199A00094B7F
:10189000D358052BD4DC0133620012199100054A9C
:1018A0008B50062BCCD1034B5B1801221A71C7E772
:1018B00010BDC046AC5A012064060020F0B5DE46DB
:1018C00057464E464546E0B59FB00B22E349E448F3
:1018D00004F0D8FD04F07AFFE24804F03BFFE24850
:1018E00004F068FF162000F0F7FCD0231B068022CE
:1018F000D2039A615A629A61032000F0EDFC042041
:1019000000F0EAFC072000F0E7FC062000F0E4FC11
:10191000022000F0E1FC002405E0A200D34BD058E7
:1019200000F0DAFC0134072CF7DDD024240608236C
:10193000A3620833A3627033A362403BA3623C3BC3
:10194000A3621B2000F0C8FC80231B056361636257
:10195000FF221202A2626361C54804F02BFF0CF063
:1019600009FCC44804F026FF0024022C10DCC24D00
:10197000A600705900F0B0FC705901238340D022BA
:10198000120693620022012100F08CFC0134ECE786
:101990001A2000F0A1FCD0231B068022D2049A62F8
:1019A000002201211A2000F07DFCB44804F002FF5F
:1019B000B348FEF7F1FFB34C2000FFF7D5F8B24B68
:1019C000B24A1360B24A1360B24A13600020FFF7B4
:1019D00097FDFFF7FBFEB04807F0FAFD00210F204E
:1019E00002F006F92000FFF7C9FAC9E3AB49A548A0
:1019F000FFF760F800F00AFC002D00D088E2002C10
:101A000000D1CEE0D0231B069846FF231B02994647
:101A100043464E469E6280231B05994643464E46EA
:101A20005E615E615B681B12DBB20993089B002B51
:101A300037D09B4B1B6899469A4B994514D001238C
:101A40004B449846984B73264A469E544346DB17B0
:101A5000DB0C9946C8444346DB04DB0C4A469B1A20
:101A600098468F4B42461A608D4B1B6899468D4BAA
:101A7000994500D14CE201234B4498468A4B4A4693
:101A8000099E9E544346DB17DB0C9946C8444346E7
:101A9000DB04DB0C4A469B1A9846814B42461A608F
:101AA00036E27F4B1B6899467E4B994514D0012343
:101AB0004B4498467C4B57264A469E544346DB1778
:101AC000DB0C9946C8444346DB04DB0C4A469B1AB0
:101AD0009846734B42461A60714B1B689946714B8E
:101AE000994514D001234B4498466F4B4A46099EB2
:101AF0009E544346DB17DB0C9946C8444346DB043F
:101B0000DB0C4A469B1A9846654B42461A60644B6A
:101B10001B689946634B994515D0644B1E68012399
:101B20004B449846604B4A469E544346DB17DB0CB9
:101B30009946C8444346DB04DB0C4A469B1A984648
:101B4000574B42461A60564B1B689946554B994570
:101B500018D0564B1B681B129A4601234B449846DB
:101B6000514E4B465246F2544346DB17DB0C994626
:101B7000C8444346DB04DB0C4A469B1A9846484B54
:101B800042461A60494B1B689946494B1B68984668
:101B90004B46464633439846464B4646099A9A5525
:101BA000B6E1089B002B00D186E0002E00D183E037
:101BB000D0231B06984680231B05994643464A4678
:101BC0009A61FF231B02994643464A465A62344BA8
:101BD0001B689946334B994514D001234B449846D2
:101BE000314B49264A469E544346DB17DB0C994647
:101BF000C8444346DB04DB0C4A469B1A9846284BF4
:101C000042461A60264B1B689946264B994514D0CC
:101C100001234B449846244B01264A469E54434692
:101C2000DB17DB0C9946C8444346DB04DB0C4A4611
:101C30009B1A98461A4B42461A60D0231B069846B8
:101C400080235B00994643464A465A61FE231B02A5
:101C5000994643464A469A615AE1C0462C490110CA
:101C6000044E01203849011044490110700600203B
:101C7000584901107849011064060020904901106C
:101C8000100700201407002090060020004E0120BD
:101C9000A45D0120A05D012071030010CC4901105A
:101CA000281E0120FF1F0000FC2D0120081E01201E
:101CB0000C1E01201C070020D0231B069846802301
:101CC0001B05994643464E469E61FF231B029946DB
:101CD00043464E465E62CE4B1B689946CD4B9945B6
:101CE00014D001234B449846CB4B72264A469E544F
:101CF0004346DB17DB0C9946C8444346DB04DB0C48
:101D00004A469B1A9846C24B42461A60C04B1B6813
:101D10009946C04B994519D0C04B1B689A46012380
:101D20004B449846BE4E5346F65CBB4B4A469E54C7
:101D30004346DB17DB0C9946C8444346DB04DB0C07
:101D40004A469B1A9846B24B42461A60B34B1B68F0
:101D50009946B44B1B6898464B46464633439846D3
:101D6000AF4B46469B5D1B029846D0231B069A4606
:101D700046465E61FF231B02994643464E4673402A
:101D80009846534646469E61C2E0A14F3B6898463E
:101D9000A04FBB420DD05F1C9F4B772642469E54FE
:101DA000FB17DB0C98464744FF04FF0CFF1A984BC7
:101DB0001F60974F3B689846964FBB420DD05F1C03
:101DC000954B424656469E54FB17DB0C98464744BB
:101DD000FF04FF0CFF1A8E4B1F608D4F3B68984627
:101DE0008C4FBB420ED08D4F3E685F1C8A4B4246E3
:101DF0009E54FB17DB0C98464744FF04FF0CFF1A68
:101E0000834B1F60824F3B689846824FBB4211D084
:101E1000824F3F683B12994643465F1C7E4E4A46BE
:101E2000F254FB17DB0C98464744FF04FF0CFF1AE3
:101E3000774B1F60794F3B687A4F3F681F43784B61
:101E40005646DE55019B002B0FD16346002B0CD06C
:101E5000002D0AD1002C00D19BE0D0252D06FF27B4
:101E60003F02AF6280273F056F61039B002B05D1C6
:101E7000089B002B02D0694D00262E60029B002B90
:101E80000FD1002C0DD0D0252D06FF263602AE62D4
:101E9000802636056E610143CB0702D429006E61AE
:101EA0004968002C07D0D0210906FF200002886273
:101EB000802000054861079B0393069B0293059BC6
:101EC0000193049FD0231B065B685B0100D43DE1B6
:101ED000D02000064168C908012635000D40049550
:101EE00043681B0932001A409446059243689B09D7
:101EF00034001C4006944268D20933001340089312
:101F00000793406880080640B346012F00D173E56F
:101F1000002F97D1002D95D0D0273F06FF231B021D
:101F2000BB6280231B057B61002C8BD07B617F68AB
:101F30003F12FBB29A46089B002B00D125E7344F95
:101F40003B689846334FBB420DD05F1C324B732623
:101F500042469E54FB17DB0C98464744FF04FF0C97
:101F6000FF1A2B4B1F602A4F3B689846294FBB42F4
:101F700000D167E75F1C284B424656469E54FB172C
:101F8000DB0C98464744FF04FF0CFF1A204B1F60F0
:101F900058E7089B002B47D05B46002B44D01C4DD4
:101FA0002F681C4DAF420FD07D1C1B4B9C46492314
:101FB000984663464246DA55EF17FF0CED19ED04DB
:101FC000ED0CED1B124F3D60114D2F68114DAF42CE
:101FD0000FD07D1C104B9C464423984663464246D6
:101FE000DA55EF17FF0CED19ED04ED0CED1B084F62
:101FF0003D60D0252D0680273F05AF61FF273F02BA
:102000006F6280277F006F61FE273F02AF612CE780
:10201000281E0120FF1F0000FC2D0120081E0120AA
:102020001C0700200C1E0120824D2F68824DAF42FC
:102030000FD07D1C814B9C465223984663464246F6
:10204000DA55EF17FF0CED19ED04ED0CED1B794F90
:102050003D60784D2F68784DAF420FD07D1C774B97
:102060009C464423984663464246DA55EF17FF0CD8
:10207000ED19ED04ED0CED1B6E4F3D606D4D2F68BD
:102080006D4DAF4215D06E4D2B686E4D2D682B43B4
:102090009C467D1C6C4B62469B5C9846674B424657
:1020A000DA55EF17FF0CED19ED04ED0CED1B614F48
:1020B0003D60604D2F68604DAF4215D0604D2B687C
:1020C0009846604D2B689C467D1C434662461343F0
:1020D0009C465A4B6246DA55EF17FF0CED19ED049A
:1020E000ED0CED1B534F3D60524D2B689C46524DFD
:1020F000AB4211D0524D2F68524D2D682F433F12E5
:102100005D1C4E4B62469F54EF17FF0CED19ED041A
:10211000ED0CED1B474F3D60D0252D0680273F0578
:10212000AF61FF273F026F62454B1B689846454BE6
:102130001B689C464346664633439C46424B664674
:102140009B5D1B026B615F40AF618EE63F4C2000E0
:10215000FEF7D8FC002200212000FEF774FC3C4969
:102160002000FEF7A7FC3B4B196801222000FFF777
:102170007FF8394B00221A60374B1B68002B55D073
:10218000D0231B065968C908012211400F00596865
:102190000909114001915968890911400291596852
:1021A000C9090A4003925B682C4804F0D3FA04F092
:1021B000C1FA264C2000FEF7A5FC002200212000D9
:1021C000FEF741FC26492000FEF774FC25490AA8C9
:1021D0000DF05CFA0E2200212000FEF734FC0AA963
:1021E0002000FEF767FCFEF7E3FCFEF7FDFC15227E
:1021F00000212000FEF727FC1B4B1B78002B01D190
:10220000FFF7F4FB19491148FEF754FC0F4C1C2250
:1022100000212000FEF717FC15492000FEF74AFCBC
:10222000232200212000FEF70EFC4BE6FFF7F2FA16
:10223000A2E7C046281E0120FF1F0000FC2D012040
:10224000081E01200C1E01201C070020140700207E
:10225000F0490110004E0120E41D0120A4490110A5
:10226000B0490110044E01204E1E0120C04901104A
:10227000DC49011010B58300084A944663441C6889
:1022800040226240C02414408022520113431C604B
:10229000C000034B9C466044416010BD04C0014037
:1022A0000040014080000B4B9C46604400290DD04B
:1022B0000823002A0CD004221343026853400C2246
:1022C0001340802252011043036070470023F0E75F
:1022D0000022F1E704C0014010B501238340D02261
:1022E0001206936293610521FFF7C4FF10BD000041
:1022F000EFF3108072B6034B1B68002BFBD0BFF3CB
:102300005F8F70472C0100D0BFF35F8F024B00221C
:102310001A6080F3108870472C0100D0F8B50600D1
:102320000C001500FFF7E4FFE308F718F15C072243
:102330002240012393400B4205D1DBB20B433B709B
:10234000FFF7E2FFF8BD2100280001F0D7FAF0B551
:1023500083B00600019114001F00FFF7C9FFBC42C3
:102360000ED8E308F518F35C0721214001228A40CA
:102370001A4201D00134F2E7D2B21A432A7001E0C6
:1023800001246442FFF7C0FF002C02DB200003B0F1
:10239000F0BD019B002BF9D0089801F0AFFA0000C6
:1023A000034B1B6802201840431E9841C0B270477F
:1023B00000C0064000231F2B08D8054A9A18920037
:1023C000BFF35F8F002111600133F4E77047C0460F
:1023D00040000034054A1078431CDBB21370172B01
:1023E00002D9130010221A707047C0461C07012042
:1023F00000B583B00100044B00931F23182203484B
:10240000FFF7A5FF03B000BD444C01102C190120BB
:1024100070B504000D00062001F08AFBC000290001
:1024200002F0C4FFC60908D00E4B9E4217D87F2386
:10243000184001303500460800E001256562A662BB
:102440002C3480208001044300232360062001F007
:102450006FFB8000A901891902F0A8FF70BD00265A
:10246000014DEBE7FEFF0000FFFF0000002909D04F
:102470000A22064B9C466044434258414000044BAC
:10248000C252704780225200F3E7C0460080FCBF72
:10249000A85D012070B505000C00062001F048FB86
:1024A000002829D0164B9D4227D08022D203154BFD
:1024B0001A60154B1A60154B9B6811009943FAD1AD
:1024C00000212800FFF7D2FF21002800FFF7A0FF1E
:1024D0002C002C34E96A60224A406E21114080228F
:1024E0005201224311600A4B2B6380239B0123433B
:1024F00010221A600323AB6470BD80221204D6E759
:102500000080034000E0004000F0004000C00040B8
:102510000103000070B505000C00080000F0C2FDCA
:10252000200000F0C9FE0849200000F009FEFFF776
:1025300051FF064B9C466044800068602C75A400E7
:10254000034BE55070BDC0465928001040000034D0
:10255000EC1D01200A4B1A68EFF3108172B6136864
:10256000002BFCD0BFF35F8F054B1B68BFF35F8F61
:1025700000221A6081F3108840BF002000217047BC
:10258000041E012010B5002922D003681B7B99424C
:102590001ED8174B9C466144090183689C466144E0
:1025A0000C684968002A19D003681B7B9A4215D829
:1025B00083680F488446624412019A181068536871
:1025C000020001208B4201D80ED00020C0B210BD05
:1025D000084B094A3B21094801F072F9054B064AAC
:1025E0003B21064801F06CF9A242EFD8EDE7C04666
:1025F000FFFFFF0FB84C0110984F0110744C0110F1
:1026000010B500291ED0037B99421BD84B005B18E4
:10261000033B0468A4466344002919D0002A1DD056
:10262000914221D0002A25D0047BA24222D80468FE
:1026300050008018033820188170197800291FD1A4
:102640001A7010BD104B114A6921114801F038F978
:10265000104B114A70310E4801F032F90F4B0E4AFF
:1026600071210B4801F02CF90D4B0B4A72210848DF
:1026700001F026F9044B054A6921054801F020F9CB
:1026800041701A70DDE7C046EC4C0110584F011044
:10269000084D01105C4D0110644F0110684D011090
:1026A000744D011070B506000D001400002914D0FF
:1026B000002A14D0806873689847002806D022004A
:1026C00029003000FFF79CFF280007E02A002100C6
:1026D0003000FFF795FF200000E0100070BD0800FB
:1026E000FCE70000F0B583B00500009201930AAB4F
:1026F0001C780BAB1F78002C26D003685A7B9442C1
:1027000007D10123002B19D1002C3BD1200003B0AD
:10271000F0BD002C0CD01A7B944209D81A686300D3
:102720001B19033BD3189B78002BEBD00123E9E75F
:102730003E4B3F4A69213F4801F0C2F83E4B3F4AB9
:1027400065213F4801F0BCF803689C7B002CDBD07E
:1027500012D01A7B94420FD862001219033A1968FA
:102760008C46624451789973002900D1D9730023B3
:10277000937053701370C7E72C4B2D4A69212D4875
:1027800001F09EF8002C3AD02B681B7B9C4236D877
:102790002C4BE3181B01AA6894466344009A1A6004
:1027A000019A5A60089A9A60099ADA602E68002C99
:1027B0002BD030D0337B9C422DD863001B19033BB8
:1027C00032689446634400229A705A701A70717B82
:1027D00022003000FFF766FF7073844200D095E757
:1027E000287D009A019B00F0F3FC061E01D0002F0B
:1027F00017D00C9B002B00D188E71E7086E7124B88
:10280000124A3B210E4801F05BF8114B114AA621F8
:10281000084801F055F8054B054A6921054801F0C3
:102820004FF82868210000F041FFE2E7EC4C01106E
:10283000584F0110084D01108C4D0110D04F011060
:10284000744C0110FFFFFF0FB84C0110984F01109E
:10285000704C0110784F0110F0B5DE4657464E46D9
:102860004546E0B58BB00990002308938200B34B36
:10287000D658370052E0B24BB24A3D21B24801F07F
:102880001FF8B24BB24A3B21B24801F019F80029B7
:1028900001D1002869D10021404600F0FDFEA04290
:1028A00019D12A686B6806920793AB689846EB6863
:1028B0009A464346002B14D0002C18D03B681B7B53
:1028C0009C4214D8631EFA68D35C08931B02184319
:1028D0003861002015E0A04BA04A8C219D4800F0F3
:1028E000EFFF9F4B9D4A90219A4800F0E9FF974BDC
:1028F0009C4A4021974800F0E3FF00239A469846FF
:1029000000207B68BFF35F8F00221A6086F3108877
:102910004346002B32D1002800D107E100F0CEFB66
:1029200002000B1EA7DB00200021069007917868AB
:10293000EFF3108672B601680029FCD0BFF35F8FF9
:10294000396888464C7B002CD7D09AD0097B8C42C2
:1029500097D8854965182D01B9688C466544286863
:102960006968801A9941002991DD2A686B68099885
:1029700000F02EFC00239A469846C2E7089B1B02F3
:102980002343994651461800C04705000E007A6857
:10299000EFF3108B72B6136859424B41D9B2002B3A
:1029A000F9D1BFF35F8F002E26DB002E52DD3B698D
:1029B000002B53D04B4572D100F080FB02000B1E60
:1029C00073DB0100180052197341984202D804D1F8
:1029D000914202D901225242D317002B6BDB002116
:1029E00004910131039102945146019141460091B5
:1029F0003800FFF777FE49E03B69002BD5D04B4507
:102A00001CD1069A079B10001900521BB341994232
:102A100002D804D1904202D901225242D317002B8E
:102A200012DB00210491013103910294514601917E
:102A3000414600913800FFF755FE27E04B4B474ACF
:102A40009F21444800F03CFF3D4B3E4A3D213E481B
:102A500000F036FF002E01D1002DA8D13A68002CDD
:102A600045D0537B9C422CD1012100293FD1D37BFF
:102A7000002B42D1D473002C52D03B681B7B9C426C
:102A80004ED8FA68013C135D0133135500233B61B6
:102A90007A68BFF35F8F13608BF310883EE7334B88
:102AA0002E4AA2212B4800F00BFF254B254A3D2141
:102AB000254800F005FF224B224A3D21224800F024
:102AC000FFFE002C0DD0137B9C420AD863001B191B
:102AD000033B1068844663449B78002BC5D00121DA
:102AE000C3E7234B234A6921234800F0E9FE234B27
:102AF000234AF721204800F0E3FE002B0AD0117B87
:102B00008B4207D85900CB18033B11688C466344AD
:102B10005C70AFE7164B174A6921174800F0D0FEEA
:102B20000A4B104A40210B4800F0CAFE0BB03CBCD7
:102B300090469946A246AB46F0BDC046EC1D01202A
:102B4000B44D0110404F0110D04D0110B84C011090
:102B5000984F0110744C0110204E0110E84F0110E5
:102B6000384E0110A44F0110FFFFFF0F444E01101B
:102B7000EC4C0110584F0110084D0110804E01100F
:102B8000884F011010B50A4B5B68002B04D00A2156
:102B9000084800F0C1FB10BD054C2300064A102177
:102BA000206800F099FC03212000FFF7B3FCEEE75A
:102BB00020070120041E01208525001010B5064BBA
:102BC0005B68002B01D0044810BD044B044A5C2113
:102BD000044800F075FEC04620070120A44E0110F5
:102BE000B84F0110744C0110F0B5DE4657464E4602
:102BF0004546E0B58BB0804616001F00149B9A46F0
:102C0000159B994616AB1B789B461F2302AA944638
:102C1000634400221A7032E0002809D0424612684C
:102C2000127B904204D8421E4146C9688A5C48E043
:102C3000434B444A4021444800F042FE0798002B91
:102C400075D05B46002B72D04946D04704000D007A
:102C500003000B4300D171E0002946DB00F02EFA9F
:102C600006000F1E55DB36196F41B94202D804D158
:102C7000B04202D901267642F717002F4FDB4346B8
:102C80005A68EFF3108472B6136859424B41D9B2B7
:102C90000791002BF8D1BFF35F8F1F3302AA944630
:102CA000634404930023039302934B4601935346DA
:102CB000009332003B004046FFF714FD031EABD1EA
:102CC000020041464968BFF35F8F00250D6084F321
:102CD0001088002B29D01F2302A98C4663441B783F
:102CE000002BABD112021043A9E732003B00361B88
:102CF000AF41BB4202D804D1B24202D9012676428A
:102D0000F717002FBBDA114B114A3D21114800F093
:102D1000D7FD0E4B0E4A3D210E4800F0D1FD0B4B66
:102D20000B4A3D210B4800F0CBFD012040420BB087
:102D30003CBC90469946A246AB46F0BD0798F6E7E4
:102D4000B84C0110A44F0110744C0110B44D011087
:102D5000404F0110D04D0110F8B504004268EFF368
:102D6000108572B6136858424341D8B2002BF9D18E
:102D7000BFF35F8FCBB22268567BB3421BD10120D9
:102D8000002847D0206988422BD0090AC9B2002BFD
:102D90002DD02068007B834229D8581EE668305C1D
:102DA00088422AD000206368BFF35F8F00221A6038
:102DB00085F31088F8BD002B0DD0167BB3420AD8DE
:102DC0005E00F618033E1768BC466644B678002ECF
:102DD000D6D00120D4E7124B124A6921124800F0E4
:102DE0006FFD124B124AFE21124800F069FD124B92
:102DF000124A40210F4800F063FD1900100000F056
:102E000055FC0028CFD106210D4B094AFF31094856
:102E100000F056FD23698B42C5D100232361C2E730
:102E2000EC4C0110584F0110084D0110C84E011014
:102E300004500110744C0110B84C0110A44F011043
:102E4000EC4E0110F0B587B006000F00FDF70BFA4D
:102E500000281FD106246442E517A4197D41BD4214
:102E600002D803D1B44201D900240025002D14DB7F
:102E70000494059500F022F902000B1E13DBA41A3E
:102E80009D41002D17DC14D03000390000F022F9EC
:102E900007B0F0BD234800F031FD234B234A3D210C
:102EA000234800F00DFD204B204A3D21204800F032
:102EB00007FD002CE8D0FFF781FE00230293019369
:102EC0001C4B0093049A059BFFF78EFE002818DA2E
:102ED000DAE7002300E00023002BD5D1164B1A6857
:102EE000EFF3108172B61368002BFCD0BFF35F8F35
:102EF000114B1B68BFF35F8F00221A6081F31088AB
:102F000020BF0499059A0D4B5B6A9A42E3D80B489F
:102F1000806A884203D29A42DBD00123DCE7012396
:102F2000DAE7C046F04E0110B44D0110404F0110D9
:102F3000D04D011055250010041E01200040054011
:102F4000F8B504000D0000F0B9F802000B1E10DB0C
:102F500020002900801859418B4202D804D18242B6
:102F600002D901204042C117002908DBFFF76AFFA0
:102F7000F8BD064B064A3D21064800F0A1FC034B74
:102F8000034A3D21034800F09BFCC046B44D0110AC
:102F9000404F0110D04D011070B584B005000C00F9
:102FA000FFF70CFE002302930193194B00932A00B4
:102FB0002300FFF719FE061E12DC164B5B6A9C42CB
:102FC00009D8144A926AAA4208D29C4201D0012030
:102FD00002E0002000E0002004B070BD0120FBE70B
:102FE00020BFFFF7EBFD3100FFF7B6FE094B5B6A30
:102FF0009C4209D8074A926AAA4207D29C4201D051
:103000000120E9E70020E7E70020E5E70120E3E70A
:10301000552500100040054070B5EFF305833F20B3
:1030200018401038EFF3108472B6194B1B68002B50
:10303000FBD0BFF35F8F012319008140154A516314
:10304000154A12781500C5402B4214D0114B5D6A09
:103050008300124E9B599D4206D38300104D5B594D
:103060008A430D490A7007E00A4A031D9B009958DC
:103070009950002300E00023BFF35F8F044A002132
:10308000116084F31088002B00D0984770BDC046B3
:10309000280100D0004005404F1E0120181E0120CD
:1030A0001C18012010B50100024A0348FFF736F949
:1030B00010BDC046285001104A1E0120044B5B6A17
:1030C000034A906A1900536A9942F9D17047C04681
:1030D00000400540074B5B6A8B4204D2054B5B6A9C
:1030E000FAE7044B5B6A8B4203D1024B9B6A834233
:1030F000F7D370470040054070B504000D00FFF79E
:10310000DDFF02000B0020002900801859418B428E
:1031100002D804D1824202D901204042C1170029BD
:1031200002DBFFF7D7FF70BD024B034A3D21034886
:1031300000F0C6FBB44D0110BC500110D04D011081
:1031400070B504000D00EFF3108672B61B4B1B68C0
:10315000002BFBD0BFF35F8F002D1CD0200000F0B0
:1031600067FD174B83420BD01900200000F068FD6B
:103170000121200000F04CFD0123A340114A1360FF
:10318000A400114BE550BFF35F8F0C4B00221A6077
:1031900086F3108870BDA2000B4B0021D150012294
:1031A000A2400A490B7893430B700549200000F0B8
:1031B00071FD0021200000F02BFDE4E7280100D084
:1031C00019300010386005401C1801204F1E0120E6
:1031D000F0B5DE4600B584B00400150001921E0073
:1031E0000293FFF76BFF03958E4202D84ED18542C2
:1031F0004CD9EFF3108B72B6274B1B68002BFBD01A
:10320000BFF35F8F254A17780125A540EBB23B43FA
:103210001370234B5D63221D92000199D150A200CF
:103220002049029850501B6A2B4212D11C4B1B6C38
:103230002B4208D00020BFF35F8F174B00221A608B
:103240008BF3108823E0184B184AC121184800F06E
:1032500037FBFFF733FF8E4214D802D1039B834222
:1032600010D80E4B1B78BB420ED00D4B1D625D6318
:103270001F2004400123A3400E4A1360074B1F7018
:103280001E38D8E70020D6E70120D4E7012004B09B
:1032900004BC9346F0BDC046280100D04F1E01205B
:1032A00000400540181E01204C500110D450011060
:1032B0007050011080E200E010B5EFF3108472B698
:1032C0000A4B1B68002BFBD0BFF35F8F01238340A9
:1032D000074A136207490A789A430A70BFF35F8F5F
:1032E000024B00221A6084F3108810BD280100D020
:1032F000004005404F1E012070B504000E0015006F
:10330000FFF768F80100200000F006F8A680E580CD
:10331000BFF35F8F70BD0000024B9C466144890083
:10332000016070474000003470B504000D00FFF7E5
:1033300051F801002000FFF7EFFFFF2323716571B3
:10334000BFF35F8F70BD10B50021FFF7EDFF10BD1B
:1033500010B5FF21FFF7E8FF10BD0000034B9C46AE
:10336000614489000160BFF35F8F70474000003403
:1033700010B504000120FFF73BF801002000FFF723
:10338000EDFF10BD10B500291ED0037B99421BD85C
:103390004B005B18033B0468A4466344002919D022
:1033A000002A1DD0914221D0002A25D0047BA242C0
:1033B00022D80468500080180338201881701978CA
:1033C00000291FD11A7010BD104B114A69211148F4
:1033D00000F076FA104B114A70310E4800F070FA86
:1033E0000F4B0E4A71210B4800F06AFA0D4B0B4A45
:1033F0007221084800F064FA044B054A6921054827
:1034000000F05EFA41701A70DDE7C046EC4C011026
:1034100048530110084D01105C4D01105453011028
:10342000684D0110744D011070B506000D001400B8
:10343000002914D0002A14D08068736898470028A7
:1034400006D0220029003000FFF79CFF280007E08B
:103450002A0021003000FFF795FF200000E0100057
:1034600070BD0800FCE7000010B500234373013372
:103470008373037BC3730123027B9A4214D9002B0D
:103480000CD0027B934209D85A00D218033A016843
:103490008C4662440133DBB25370EDE70B4B0C4AB0
:1034A00069210C4800F00CFA002A09D0924207D892
:1034B000016853009A18033A8A180023537010BD0C
:1034C000024B034A6921034800F0FAF9EC4C011061
:1034D00048530110084D011010B50173426083601C
:1034E000FFF7C2FF10BD000070B50400081E00D138
:1034F00070BD002934D0237B994231D84B005B1832
:10350000033B2268944663445A78002AF0D02DD0B9
:10351000237B9A422AD853009B18033B21688C4690
:1035200063445D7800215970002825D0237B9842A0
:1035300022D843001B18033B21688C4663440021BA
:10354000597001002000FFF76FFF060029002000DE
:10355000FFF7CAFF020031002000FFF765FFC7E751
:10356000084B094A6921094800F0AAF9054B064AA7
:103570006921064800F0A4F9024B034A6921034877
:1035800000F09EF9EC4C011048530110084D011059
:1035900070B505000C001600002928D02DD0037B43
:1035A00099422AD84B005B18033B02689446634457
:1035B0005A78002A27D19A78002A2AD11978FFF759
:1035C00093FF0300002E03D0EA7B002A27D1EC737F
:1035D000002B37D1002C49D02B7B9C4246D82B683E
:1035E00061000C19033C1C190023637070BD224B51
:1035F000224A3821224800F063F9224B224A6921ED
:10360000224800F05DF9224B1C4A3A211C4800F088
:1036100057F9204B194A3B21194800F051F9002A6B
:103620000AD0297B8A4207D851008A18033A2968B0
:103630008C4662445470CAE7124B134A69211348FE
:1036400000F03EF9002B0BD02A7B934208D84300B0
:103650001B18033B2A689446634400229A70B9E71A
:10366000084B094A6921094800F02AF9054B064A26
:103670006921064800F024F98852011068530110AE
:1036800090520110EC4C011048530110084D0110EC
:10369000D4520110FC52011070B504000A00457BA1
:1036A0002900FFF775FF6073280070BD70B5040036
:1036B000002966D0437B8B420ED0002911D0037BBA
:1036C00099420ED84B005B18033B0268D0188378F0
:1036D000002B0CD1002055E00121FFF7DDFF012078
:1036E00050E0294B294A6921294800F0E9F8002BCC
:1036F0001FD0227B93421CD825685A00D318033B65
:10370000EA18EB5C8B421AD0002B1BD0227B934231
:1037100018D85A00D318033B2268D21853788B422A
:1037200016D0002BF0D11B4B1B4A67211B4800F021
:10373000C7F8154B154A6921154800F0C1F84378C0
:10374000137007E0104B114A6921114800F0B8F8D6
:103750004378537000238370437001222000FFF7E9
:1037600017FF0200617B814205D02000FFF75CFE5D
:103770006073012006E00A4B074A6D21074800F0FC
:103780009FF8002070BDC046EC4C0110485301105A
:10379000084D0110205301107C530110905201106C
:1037A0002853011070B5264B264A1A60264B274A2B
:1037B0001A60274B9A68254B9343FAD1254C264B28
:1037C0009C4202D208CC9847F9E700F031F91E4B31
:1037D000224A1A601E4B9B68DB43DB01FAD1204B67
:1037E00040229A675A671A67DA661E4C03E0200087
:1037F000FFF7A9FD08341C4B9C4206D26379002BCD
:10380000F5D02000FFF7A4FDF4E7184CA168184D8F
:10381000C022280002F036FEA560FCF724FD002837
:1038200000D000BEFEF7C6FD00F096FBFFF7AAF938
:10383000104C01E008CC98470F4B9C42FAD370BD66
:1038400000E00040BFCDFBFE00F00040FE7F3C00EA
:1038500000C000403012012040120120FFFFFF0194
:1038600000F00140201201203012012000ED00E0A4
:1038700000000020401201204812012000BEFDE798
:1038800003000A4A1268002A08D0084A1068C318C0
:10389000074A9A4206D3054A13607047034A05490E
:1038A0001160F2E701204042F7E7C046D01901203D
:1038B000000004207460012010B5FFF7DFFF000056
:1038C00010B582B00C001900002A0CD0084B002A59
:1038D0000BD00192009323000200064802F06AFF19
:1038E0000120FFF7CBFF044BF1E7034AF1E7C046A5
:1038F00094530110A4530110A44701100FB400B554
:1039000083B0084802F026FF049B002B07D005A9CE
:103910000191180002F02CFF034802F01BFF012068
:10392000FFF7ACFFD4530110E4530110F8B5DE46A5
:1039300057464E464546E0B505000F0092461E002C
:103940000A9B9E424ED3330E994636020A9A0023B2
:103950003000494601F06CFD80466C006419A400FB
:103960002E4B9C4664446368834200D260602B1FE8
:10397000DBB29B46012B3BD9C0239B012343802212
:1039800012011A60AB00264A9958002905D05069E7
:1039900001F00CFD01300138FDD153465A01236876
:1039A0005A40E0231A4080235B0123431A605A46A1
:1039B000012A28D980239B012343802212011A6007
:1039C00043466360424600233000494601F030FD23
:1039D000AD00134B585101203CBC90469946A2467D
:1039E000AB46F8BD0F4B104A2D211048FFF768FF7A
:1039F000012FC1D1C0239B01234303221A60A36876
:103A0000DB07FCD5C9E72168794003220A401A6028
:103A1000A3680122BA401A42FAD0CBE700800040E6
:103A200030190120E85301104C540110FC530110CF
:103A300030B583B00C2000F027FBFEF7B1FC002866
:103A40000DD00023092B05D899002D4A2D48885008
:103A50000133F7E72A4B2C4A5A6203B030BD2B4B97
:103A600000229A6700F07EFB294B01221A60274B47
:103A70005B6C012BFBD1274B03221A60234B9B6B02
:103A8000012BFBD1022400940533234A0121234852
:103A900000F06EFA00940523214A0121214800F02C
:103AA00067FA214B0093002202210420FFF73EFF1A
:103AB0001E4D00952B00002201210520FFF736FF47
:103AC000104C00942300002200210720FFF72EFF56
:103AD00000942300002200210820FFF727FF0A4B53
:103AE00000932300002200210920FFF71FFF00950B
:103AF0002B00002200210620FFF718FFADE7C0468B
:103B000030190120006CDC021BB70000008000406F
:103B10003CB0004030B00040002F685900800240A7
:103B200000389C1C00C00240001BB70040597307BE
:103B30008000014BC058704730190120074B9B682B
:103B4000103080001950BFF35F8FBFF35F8F044BBD
:103B50000021196082F310887047C04600ED00E034
:103B6000240100D010B5091A04394808090B05D101
:103B70004005400D044B184380B210BD034B044A6E
:103B80008C210448FFF79CFE00E0FFFF5C5401100D
:103B9000445601106C54011010B5091A04394C0830
:103BA000090B08D14905490D064A11430180064B0E
:103BB0002343438010BD054B054A94210548FFF778
:103BC0007FFEC04600F0FFFF00F8FFFF5C540110CD
:103BD000505601106C54011001238340034A1068B1
:103BE0001840431E9841C0B27047C04600E100E053
:103BF000002904D0034B1860034B18607047034B37
:103C00001860FBE780E200E000E100E080E100E016
:103C100010B5012383401800FFF7EAFF10BD000034
:103C200001238340014A13607047C04600E200E070
:103C3000024B9B6810308000C058704700ED00E0D8
:103C400070B504000D00EFF3108672B60C4B1B68C4
:103C5000002BFBD0BFF35F8F2000FFF7E9FF094B7C
:103C6000984201D0A84205D1320029002000FFF778
:103C700065FF70BD044B054A70210548FFF720FE23
:103C8000240100D0CD010010B454011028560110B9
:103C90006C540110F0B5CE46474680B583B006009F
:103CA0000D00EFF3108872B6574B1B68002BFBD04A
:103CB000BFF35F8F554B9A6834001034A300D75878
:103CC000534B9F4207D0AF4200D19BE00197514B2D
:103CD000FB1A2F2B09D9424639003000FFF72EFF7F
:103CE00003B00CBC90469946F0BD3000FFF774FF5E
:103CF000814600213000FFF78BFFBFF35F8FFCF799
:103D0000B2FA002801D0844219D10123019C9C43BE
:103D1000230040495B1A5B4148495943090D49B2A8
:103D20000022A368AB4212D00622A256002A0DDB65
:103D300053009B189B002200364CE418F1E7202129
:103D4000354B364AFF313648FFF7BAFD2200AB4209
:103D500051D106256557002D39DB6B005B199A00A0
:103D60002C4B9B189A68A260DA79E27106229A5667
:103D7000A2719B795BB2002B10DABD200002A080FB
:103D80006B005B199B00234AD318264A117899715E
:103D9000157049463000FFF73BFF9CE7201D6B0084
:103DA0005B199B001B4A9B181A1D9B88D90A1C296A
:103DB00007D159054915023149005118FFF7D2FEC4
:103DC000DDE7194B194A9A211548FFF779FD0028BC
:103DD0000CD1002A08D0FF239371154B9380114B0F
:103DE0001A78A2711970D4E7094FF8E7201D11491C
:103DF000FFF7D2FECDE7AA210F4B084A4900084839
:103E0000FFF75EFD024F66E7240100D000ED00E001
:103E1000CD01001048070120C85501107856011047
:103E20006C5401104C1E0120B05501106856011051
:103E300000BDFFFF82070120EC550110AAAA000077
:103E400010B5032304009C43064A94466444226848
:103E50001840C000FC3383409A43130081400B4359
:103E6000236010BD00E400E0F8B50400012606431D
:103E70002D4BF31A2F2B28D8FCF7F5F900282BD05F
:103E8000EFF3108772B6294B1B68002BFBD0BFF3F2
:103E90005F8F2300244D5B1B5B412E4D5D432D0D39
:103EA0006DB2234B9B6880001B58B3421BD000228D
:103EB000032A32D853009B189B001B49CB189B79CF
:103EC0005BB2AB421FD00132F2E77221194B1A4AA2
:103ED000FF311A48FFF7F4FCBA21194B164A490082
:103EE0001648FFF7EDFC124B9B68164A1A50164B0A
:103EF0001A78A2711D70BFF35F8F0C4B00221A60FD
:103F000087F31088F8BD08005300991889004118FC
:103F1000FF268E710D4A8A80E9E786210C4B064AFE
:103F2000FF310648FFF7CCFC48070120240100D0F0
:103F300000ED00E0F45501108C5601106C54011096
:103F40001C560110CD0100104C1E012000BDFFFFCA
:103F500020530110AAAA000010B500241F2C05D878
:103F600080212000FFF76CFF0134F7E710BD00004F
:103F7000F0B5CE4600B504000E0091461F000C209F
:103F800001F014FA050043011B1A9901C91AC9006E
:103F900009188901484601F009FA0200103A9823ED
:103FA0005B009A4233D87B1E062B36D8069B013B1A
:103FB000062B32D8069B9F4235D34B461A09AA429C
:103FC00037D33F04069B1D032F432368002B36DBAA
:103FD000234B9C4241D080256D01224B1D60224B1A
:103FE0001D60224A92682B009343FAD12660A0609C
:103FF000221DC0239B01134321221A602268002A3C
:10400000FCDAE76008221A6004BC9146F0BD184B48
:10401000184A16211848FFF753FC184B154A192166
:104020001548FFF74DFC164B124A1F211248FFF7A7
:1040300047FC144B0F4A22210F48FFF741FC22682E
:104040003F231340B342C3D1A3681B051B0D83421A
:10405000BED1E368002FBBD1D6E78025AD01BCE718
:1040600000C0024000E0004000F0004000C00040FE
:10407000A85601108C570110C45601100C5701109E
:10408000585701107057011080239B000343014AC9
:10409000D362704700800540024B1A68024B5A6099
:1040A0007047C046D41D01200080054010B50200B5
:1040B000144B8020C0051860134B14481860002969
:1040C0001BD0134BE021C9041960002A00D1323201
:1040D0005001801A8000801800010E4B1860802368
:1040E0005B04984202D30B4B0B4A1A60FFF7D4FFD4
:1040F000074B8022D2051A6010BD024BE021C90493
:104100001960E2E700B0054008200140FCFF010013
:1041100000A00540D41D0120FFFFFF0010B50300E3
:1041200010000C4A8024E4051460002B0DD00122FD
:104130001343094A094CD461094C5C401462516232
:1041400093620021FFF7B2FF10BD034B0022DA613A
:10415000F7E7C04600B0054000800540D3C007B077
:104160002D3FF84F064BAA2212011A602F22DA6067
:10417000044B054A1A60024B5B68002BFBDA704760
:10418000004002400060024000B0FA009A4200D2B3
:1041900088547047704710B5002802D00B684968F2
:1041A000984710BD010000200A681378303BDBB24D
:1041B000092B08D883001B185B00501C086010787E
:1041C000C0183038F0E77047F0B5DE4657464E4627
:1041D0004546E0B583B093461F000C9B9A460D9C64
:1041E0000E9B99460F9B9B0703D0B8460F00060015
:1041F00022E00192A34688464E46B9460700B442E3
:1042000007D2551C4B4641462020B84701342A00AE
:10421000F5E73D004F465C46019B9B46B14646464E
:10422000B84637002E0007E0013C551C5346185D88
:1042300043463900B0472A00002CF5D135003E0036
:1042400047460F9B9B0707D4100003B03CBC904629
:104250009946A246AB46F0BDB0464E46B9462F0041
:104260005D46531BB342EFD2541C4B4641462020BF
:10427000B8472200F5E7F0B5CE46474680B585B091
:10428000944698460C9D0D9C0EAB1B789946109A4F
:10429000119B129EB7071BD4002B08D0F70706D539
:1042A0004F46002F02D10C37374200D0013B9442D9
:1042B00008D21F2C06D830272F550134F7E73027B6
:1042C0002F550134F70703D59C4201D21F2CF6D994
:1042D000F70615D5770505D4002C03D0944224D0D9
:1042E0009C4222D00F9A102A2BD00F9A102A30D03D
:1042F0000F9A022A35D01F2C02D830222A550134B9
:104300001F2C05D84A46002A31D02D222A550134C7
:10431000039602930194009543466246FFF754FFCB
:1043200005B00CBC90469946F0BD621E012C06D02B
:104330000F9F102F01D01400D4E7023CD2E71400E5
:10434000D0E7B206D1D41F2CCFD878222A55013419
:10435000D1E7B206CCD51F2CCAD858222A55013431
:10436000C9E71F2CC7D860322A550134C3E772074A
:1043700003D52B222A550134CAE73207C8D520229B
:104380002A550134C4E7F0B5DE4657464E46454649
:10439000E0B593B081468A46089209931CAB10CBD6
:1043A0001B789B461E9D219B9846002C03D1102311
:1043B00042469A4390468023DB0046461E404246D2
:1043C0001A4212D0002C22D000260EE03033D9B28F
:1043D000771C0AAB99552900200000F0E7FFAC429A
:1043E00016D31F2F14D83E0004002900200000F02F
:1043F000DDFFCBB2092BE9D94246920605D5412112
:10440000C918C9B20A39C9B2E2E76121F8E7270041
:1044100043460693209B05931F9B049303955B469D
:10442000029301970AAB0093099B089A51464846AC
:10443000FFF721FF13B03CBC90469946A246AB461D
:10444000F0BDF0B5DE4657464E464546E0B595B060
:10445000089009910A920B931E9E1F9C20AB1B781B
:104460009B46229B9946239D269B9A4633002343D5
:1044700003D1103352469A4392468023DB005746BD
:104480001F4052461A4219D0330023432DD0002733
:1044900014E03033DAB27B1C98460CABDA554A464E
:1044A0002B003000210000F0C3FFA5421FD819D017
:1044B00043461F2B1BD8474606000C004A462B00DC
:1044C0003000210000F0B4FFD3B2092BE1D95246ED
:1044D000920605D54122D218D2B20A3AD2B2DAE710
:1044E0006122F8E7B145E3D901E00023984653463D
:1044F0000693259B0593249B04934B4603935B46AD
:104500000293434601930CAB00930B9B0A9A0999C3
:104510000898FFF7B0FE15B03CBC90469946A246FD
:10452000AB46F0BDF0B5DE4657464E464546E0B5D3
:1045300091B083468A460C9298461A9C08941B9D1B
:10454000099522002B002000290001F006FA00281E
:1045500000D0E5E001225242D34B2000290001F0B7
:10456000F7F9002800D0DBE001225242CF4B2000B7
:10457000290001F0D7F9002800D0D1E00022002363
:10458000089D2800099E310001F0CCF9002800D0D8
:10459000DDE008980999069007918023DB001E9AB8
:1045A0001A400D921E9A1A4201D106231C930698B6
:1045B000079904000D000A000600024300D1CDE077
:1045C000080D4005400DBA4CA44660440A03120B86
:1045D000B84B13431F0001F0D3F9B74AB74B01F0B2
:1045E00056F9B74AB74B01F02BF904000D00002231
:1045F000B54B3000390001F01AF9B44AB44B01F060
:1046000046F902000B002000290001F019F901F021
:10461000CFF9814601F0B4F904000D00AD4AAE4B6C
:1046200001F035F90022AD4B01F00AF901F0C0F9B3
:104630000600AB4AAB4B2000290001F028F904002A
:104640000D00300001F09CF9A74AA84B01F01FF9BA
:1046500002000B002000290001F0E9F804000D0021
:1046600002000B0001F013F90A900B91A04BF31814
:1046700000261F0522002B002000290001F0E0F891
:104680000E900F9122002B0000208021C90501F01F
:10469000CEF804000D000022964B0A980B9901F009
:1046A000D8F80022944B01F0CBF802000B000A98D6
:1046B0000B9901F0CEF80022904B01F0C1F80200F6
:1046C0000B000A980B9901F0C4F802000B002000BF
:1046D000290001F0B5F802000B000E980F9901F0C7
:1046E000B8F80022734B01F0ABF832003B0001F048
:1046F000CEF806000F0004000D00069A079B01F09B
:1047000027F900282CD001235B429C46E14400227B
:10471000794B3000390001F09CF804000D001FE0D7
:104720001E9B04931D9B03931C9B0293089A099B59
:104730000092019343460C9A5146584600F0F8F80F
:1047400011B03CBC90469946A246AB46F0BD0695DA
:1047500080231B069C46664407961EE70023994665
:104760004B466333C62B1FD804261E9B1B0527D53B
:104770002B00234310D0624A624B0698079901F040
:10478000DFF8002800D183E000225F4B06980799EC
:1047900001F0C8F800287BD01C9B4B4506DD4A463B
:1047A000981A431E1C9303E00526DEE700231C93A2
:1047B0008023DB001E9A1A431E920026002399468E
:1047C0001D9B9E426ED29F1B02231E9A1A400A9284
:1047D0001E9A134202D0002E00D000274B46002B19
:1047E00007D022002B000698079901F032F80690B6
:1047F0000791002200230898099901F093F80028F6
:1048000000D085E0414B1E9A1340049303971C9BF4
:104810000293069B079C0093019443460C9A5146D1
:10482000584600F085F8002E00D189E71E9B9B06B4
:104830007AD54525441C4346020051462800D847F6
:104840004B46DA179B18534005220592013E049609
:10485000002203920A3202924A46D00F019000933E
:104860004346220051465846FFF78DFD0A9B002B18
:1048700000D165E702005F460C9E1D9D931BAB4275
:1048800054D2541C434651462020B8472200F5E735
:104890001C9B002B94D00D9B002B91D01C9B013BAB
:1048A0001C938DE700278FE7FFFFEF7FFFFFEFFFF0
:1048B00001FCFFFF0000F03FFB799F501344D33F02
:1048C000B3C8608B288AC63F0000F83F61436F631E
:1048D000A787D23F71A379094F930A400000E03FB8
:1048E0001655B5BBB16B0240EF39FAFE422EE63FDA
:1048F000FF03000000002C4000002440000018408E
:104900002D431CEBE2361A3F80842E41FFF7FFFF58
:10491000069C079D220029008020000684466144F1
:104920000B00069207936DE7652583E7100007E704
:10493000F0B5DE4657464E464546E0B595B0069082
:10494000079193469946209F1E9A1F9B10001900BD
:1049500001F003F8002831D101225242BF4B1E98CA
:104960001F9900F0DFFF002837D101225242BC4BD3
:104970001E981F9900F0ECFF00283DD10022B94B92
:104980001E981F9900F0E4FF002850D10022B64B7A
:104990001E981F9900F0C6FF002848D1002200236E
:1049A0001E981F9900F0BEFF002850D100239846A2
:1049B000229B5B0500D4B6E0002458E0229B0393C1
:1049C000219B029303230193A84B00934B465A4625
:1049D00007990698FFF7F8FB0EE1229B0393219BB2
:1049E000029304230193A24B00934B465A46079926
:1049F0000698FFF7E9FBFFE00423229A1A40229968
:104A00000B4210D09B4B002A0FD004222299039115
:104A100021990291019200934B465A4607990698B4
:104A2000FFF7D2FBE8E0944BEDE70322EEE7229B91
:104A30000493219B039302971E9B1F9C0093019458
:104A40004B465A4607990698FFF76CFDD4E01E9A2C
:104A50001F9B0020002100F0EAFE1E901F91012301
:104A60009846A5E70CAB30221A55013F01341F2CA4
:104A700001D8092FF6D81E981F9900F099FF05005C
:104A800000F07EFF02000B001E981F9900F0CFFE81
:104A9000FA007A4B9B181A685B680A920B9300F035
:104AA000F6FE0890099100F0A7FF060000F064FFF1
:104AB00002000B000898099900F0B9FE08900991CE
:104AC00000226F4B00F044FF00282ED0013630004A
:104AD00000F052FF02000B000A980B9900F028FF2B
:104AE000002801D001350026002F2CD1280000F02D
:104AF00047FF02000B001E981F9900F098FE060069
:104B00000F0000225E4B00F00DFF002842D1002272
:104B10005B4B3000390000F01BFF00283AD1EB0757
:104B200038D5013536E0062746E70022544B089871
:104B3000099900F0F7FE0028D6D1002E01D0F30726
:104B4000D2D50136D0E7AA461F2C11D8013F0A2141
:104B5000300000F02BFC651C30310CAB19550A21DC
:104B6000300000F023FC092E26D906002C00EBE7CC
:104B7000554604E00CAA302111551F0001341F2CAA
:104B800002D87B1E002FF5D11F2C03D80CAB2E2290
:104B90001A5501341F2C14D80A21280000F0DEFB1E
:104BA000661C30310CAB19550A21280000F0D6FBE9
:104BB000051E05D03400EDE72B0055461C00DEE74E
:104BC00034000323229A1340012B1CD01F2C06D83B
:104BD0004346002B32D00CAB2D221A550134229BB8
:104BE0000393219B029301940CAB00934B465A46CE
:104BF00007990698FFF7E8FA15B03CBC904699462D
:104C0000A246AB46F0BD219B002B13D04346002BA0
:104C100002D10C3313420FD0219B013B2193190089
:104C200003E00CAB30221A5501348C42CED21F2C3B
:104C3000F7D9CBE72199F8E72199F6E7229B5B07A3
:104C400004D50CAB2B221A550134C8E7229B1B0755
:104C5000C5D50CAB20221A550134C0E7FFFFEFFF8A
:104C6000FFFFEF7F65CDCD4165CDCDC1A4570110CC
:104C7000A85701109C570110985701109059011026
:104C80000000E03FF0B5DE4657464E464546E0B5EB
:104C900093B082468B4690461193002900D1ECE2F6
:104CA00000275546119B1878002800D1E8E22528F6
:104CB00009D07C1C43463A005946A847119B013352
:104CC00011932700EEE70133119300241DE00B0040
:104CD000303BDBB2092B37D92A293AD000230A937B
:104CE000119B1A782E2A44D000239A46119A1378E1
:104CF000683BD9B2122900D980E08B00CB49CB5850
:104D00009F4601231C4301321192119A11780B0026
:104D1000203BD8B21028DAD88300C548C3589F4634
:104D200002231C4301321192EFE704231C4301329A
:104D30001192EAE708231C4301321192E5E71023A0
:104D40001C4301321192E0E711A8FFF72BFA0A90F9
:104D5000C6E71C9B1A1D1C921868002804DB0A90E9
:104D6000119B01331193BBE702231C4343420A9377
:104D7000F6E78022D20014435A1C11925A7813008D
:104D8000303BDBB2092B04D92A2A07D000239A46EC
:104D9000ACE711A8FFF706FA8246A7E71C9B1A1D8D
:104DA0001C921868002804DB8246119B0133119382
:104DB0009CE70020F8E780235B002343511C1191FE
:104DC00052786C2A01D01C0018E0C0239B001C43C1
:104DD0000131119112E080232343511C119152782B
:104DE000682A01D01C0009E0C0231C430131119145
:104DF00004E080235B001C4301321192119B187860
:104E00000300253BDAB2532A00D92CE29300894AE9
:104E1000D3589F4680239B001C4301321192EDE73B
:104E200080235B001C4301321192E7E7782809D008
:104E3000582838D06F2838D0622838D010239C43A7
:104E40000A2600E01026582833D0692803D06428A9
:104E500001D00C229443630501D5012294436928B3
:104E60002AD0642828D0A30500D59FE0E30500D50B
:104E7000B8E0630600D4CAE01C9A111D1C911168A9
:104E8000FF220A4005940A9B04935346039302961B
:104E900000230193009243463A0059462800FFF749
:104EA00072FA070027E01026CDE70826CBE7022696
:104EB000C9E720221443C8E7A30520D4E30550D452
:104EC000630666D51C9A111D1C911168FF220A40C9
:104ED000D317D118594005940A9B04935346039362
:104EE0000296D20F0192009143463A00594628009B
:104EF000FFF749FA0700119B01331193D2E61C9B7F
:104F0000DA1D07218A43110008311C91116853688A
:104F10009C46DB170C930D930C9A0D9B1000484098
:104F20000E90624653400F930E980F990C9A0D9B6A
:104F3000801A99410E900F9108940A9B079353464B
:104F400006930496002305936346DA0F02920090BD
:104F5000019143463A0059462800FFF772FA0700CC
:104F6000C9E71C9A111D1C911268D317D11859401A
:104F700005940A9B0493534603930296D20F019221
:104F8000009143463A0059462800FFF7FCF9070014
:104F9000B1E7230605D51C9A111D1C910023D25E92
:104FA00096E71C9A111D1C91126891E71C9BDA1D53
:104FB00007218A43110008311C9108940A9B07932A
:104FC000534606930496002305930293136854688E
:104FD0000093019443463A0059462800FFF731FAFE
:104FE000070088E71C9A111D1C9105940A9B0493E5
:104FF000534603930296002301931368009343469C
:105000003A0059462800FFF7BEF9070073E7230668
:1050100006D51C9A111D1C9112681204120C31E75E
:105020001C9A111D1C9112682CE7C046B057011044
:10503000FC5701104058011046281AD01C9B07331A
:10504000072293431A0008321C9204940A9A03928E
:10505000524602925C681B680093019443463A00F2
:1050600059462800FFF764FC0700119B0133119398
:1050700018E620231C43E1E7672801D0472802D126
:1050800080231B011C43452801D0472801D1202340
:105090001C431C9B0733072293431A0008321C92BF
:1050A00004940A9A0392524602925C681B68009329
:1050B000019443463A0059462800FFF733FA0700A7
:1050C000119B01331193EDE502231A002240924611
:1050D00023421FD001241C9B1A1D1C927A1C91464E
:1050E000187843463A005946A8475346002B16D134
:1050F000119B013311934F46D4E5561C4346594644
:105100002020B847230032005C1C9D42F5D83D00AA
:105110001700E0E701233A002F000A9DF4E74A4612
:10512000A9460A9D06E0571C434659462020C84719
:1051300034003A00661CA542F5D84D469146D7E7A3
:105140001C9B1A1D1C921B6899465346002B00D1CC
:10515000013B4E4601E0013613003278002A02D0AE
:105160005A1E002BF7D14B46F21A10928023DB0017
:1051700026001E401C4203D0524501D953461093CD
:1051800002231A0022400B92234205D03A00370036
:105190004C46A946554620E03A00109B5F46B34670
:1051A0002E0006E0551C434639002020B04723005E
:1051B0002A005C1C0A999942F4D835005E46BB4629
:1051C000109437004C46A946554606E01D000134B0
:1051D000561C43465946C84732002078002804D060
:1051E000002FF4D06B1E002DF0D117004D460B9B05
:1051F000002B03D1119B0133119353E50A9F109BA0
:1052000006E0561C434659462020A847230032009A
:105210005C1C9F42F5D81700ECE721231C431C9B24
:105220001A1D1C921B68009305940823049353468F
:105230000393102302930023019343463A005946F7
:105240002800FFF7A0F80700119B0133119329E50F
:105250007C1C43463A0059462520A847119B013340
:10526000119327001EE57C1C43463A005946A84787
:10527000119B01331193270014E50B4B9A460FE560
:10528000AA4647450DD343465A1E43465946002079
:10529000D047380013B03CBC90469946A246AB4676
:1052A000F0BD3A00F1E7C046954100100EB410B5CC
:1052B00085B0010007AC08CC03940122009452424F
:1052C0000348FFF7DFFC05B010BC08BC03B018476B
:1052D0008D41001000B585B002900391012100932B
:1052E00013004A4202A90248FFF7CCFC05B000BDFA
:1052F0009741001001480421014B184790070120F5
:105300002553001010B5010018231B8814221088A3
:10531000984710BD10B5010018231B88162210886D
:10532000984710BDF0B5C64600B507000E00002531
:105330000123984600E00135B5420AD2AC003C1981
:105340002068FFF7DFFF20600028F4D10023984693
:10535000F1E7404604BC9046F0BD0000124A936F4E
:105360009B0815D29066D166002905D0FFE7FFE7BC
:10537000FFE7516F106F704704B580210906C2170F
:105380005140002800D0C8430FF0AEF9002104BD01
:10539000F0B5146E556E576F166FFFF7E3FF146686
:1053A000556657671667F0BD000000D0114A936F2D
:1053B0009B0813D210665166002905D0FFE7FFE76E
:1053C000FFE7516F106F704704B5002801D000202F
:1053D000C0430FF089F9002104BDC046F0B5146E3A
:1053E000556E576F166FFFF7E5FF146655665767E2
:1053F0001667F0BD000000D094464E4A926F9208A6
:10540000624601D230E0C046F0B54A4EB56F6D0835
:10541000FCD3346E756E776F366F00F025F89446C6
:10542000444A14665566576716676246F0BDC04623
:105430009446404A926F9208624601D258E0C046B4
:10544000F0B53C4EB56F6D08FCD3346E756E776F5A
:10545000366F00F04DF89446364A14665566576725
:1054600016676246F0BDC046002B24DB11D0002930
:105470003EDA00B5C943404200D1013100F038F8AE
:10548000C943404200D10131DB43524200D10133D4
:1054900000BD002AEBD1002801D1002905D0002051
:1054A000C90FC90701D1C043410800B50FF014F975
:1054B0000022002300BD00B500290ADBDB43524275
:1054C00000D1013300F014F8C943404200D101314A
:1054D00000BDC943404200D10131DB43524200D1FB
:1054E000013300F005F8DB43524200D1013300BD27
:1054F000002923D1002B18D1002A0CD0BC460D4F17
:1055000038667A6600210023FFE7FFE7FFE77A6F3E
:10551000386F67467047002801D00748010000B582
:105520000FF0DAF80022002300BD02000B0000207B
:1055300000217047000000D0FFFFFFFF002B00D0CC
:10554000BDE0130C26D1002AE7D080B4104F396695
:105550007A66FFE7FFE730B4040C7B6F396F1B04FA
:1055600023433B66FFE7FFE7FFE7C04684B27B6F5C
:105570003D6F1B0423433B66FFE7FFE7C046002364
:105580002C042D0C7A6F386F00196941B0BC70473C
:10559000000000D0F0B594460025140E01D112028F
:1055A0000835140F01D112010435940F01D1920076
:1055B0000235D40F01D152000135D40B0134254FEF
:1055C0007C66254C3C660E0C93B2FFE7FFE7FFE7D5
:1055D0003C6F6643360C7703BE467343DF0B5B04B8
:1055E000C01AB941130C7343DB18C91ACE086643BD
:1055F000360CB64493B273431F0F1B01C01AB94156
:10560000130C73431F0B1B05C01AB941860D8F0283
:105610003E436643360C092D24DB520A7243801A3E
:105620007703460A6643360C16235B1BDE40DF40D9
:10563000BF1964466643821B704604350633010079
:10564000D940A840C01900D30131A24206D200239C
:10565000F0BD0000000000D0FFFFFFFF121B013073
:10566000F3D3F1E709277F1BFE406446A2B27243E1
:10567000801A00D20139220C7243130C1204821AD0
:1056800099410B007046043513370100F940A840DA
:10569000801900D30131002B02D1A2420AD2F0BD01
:1056A000013000D30131121BFAD2013BF8D1A242E2
:1056B00000D2F0BD013000D30131121BF7E7F0B585
:1056C0001C0C00D080E00CB400251C0A04D11B0285
:1056D000160E3343120208351C0B04D11B01160FA2
:1056E0003343120104359C0B04D19B00960F3343C6
:1056F00092000235DC0B02D192185B4101351C008F
:10570000971864410134464F7C66464C3C660E0C4B
:10571000FFE7FFE7FFE7C0463C6F6643360C7703C1
:10572000BE4697B27743C01B00D20139C01B00D2DE
:1057300001399FB27743C91BC91B170C77437E04FD
:10574000FF0B801BB941CE086643360C0C2D33DBB2
:10575000B644120B1F053A431B0B97B27743C01B8D
:1057600000D201399FB27743C91B170C77433E041F
:105770003F0C801BB941860D8F023E4366432927AB
:105780007F1BFE400C3D7746AF40BF1930BCA2B234
:10579000ABB272437343801A9941220C7243130CCB
:1057A0001204801A994102000B000137001BA94125
:1057B000F9D2781E0021F0BD0C277F1BFE407746F2
:1057C0007F0BAF40FF19E0E700245D1C07D0144FAA
:1057D0007D663966FFE7FFE7FFE7FFE73C6F95B2BD
:1057E0009EB265436643401BB141150C1E0C6543D8
:1057F000664336042F0C3E432D04401BB1419942B1
:1058000004D202000B0020000021F0BD01D1904223
:10581000F7D3801A994101349942F2D3F6E7000098
:10582000000000D0FFFFFFFF48404140484018B44F
:105830001B4B5B68FC46019308BD04DF875B0010CF
:1058400018B4174B1B68FC46019308BD00DF915B41
:1058500000109446134A926F920809D2624618B417
:105860000F4BDB68FC46019308BD0CDF495E00105E
:105870000C4AF0B5146E556E576F166F6246FFF7FF
:10588000EEFF084A1466556657671667F0BD18B4F0
:10589000034B9B68FC46019308BD08DFED5C0010DC
:1058A000AC5D0120000000D0FFB5504042405040A8
:1058B00059404B40594000E0FFB5154F4C00640D76
:1058C00003D0BC4204D10C0314D80020090D0905F3
:1058D0005C00640D03D0BC4204D11C030AD8002232
:1058E0001B0D1B0501264B4009D44B4003D58B42B1
:1058F00000D18242FFBD9942FCD19042FFBD0B43D3
:10590000DB1803431343F5D0C9434918FFBD00001A
:10591000FF07000000B5FFF7CFFF01D0002000BD5A
:10592000012000BD00B5FFF7C7FF804100BDC046A4
:1059300000B5FFF7C1FF01D9002000BD012000BD67
:1059400000B5FFF7B1FF01D9002000BD012000BD67
:1059500000B5FFF7A9FF804100BD012040054A00C6
:10596000121804D85A00121801D8002070470120DC
:1059700070470020704700000021002805D17047C3
:10598000C1174840401AFAD0C90713B5064B1B6827
:1059900098470CBC441CA2401005120B0349091B7C
:1059A00009051943114310BDAC5F01201F0400001D
:1059B00010B54C00620D8023D218DB00D21A5B05B3
:1059C0007E2A10DD9E3A13DACC17090349081943E1
:1059D0005242D140640001341532202A05DAD04009
:1059E0000843604310BD002010BD0846604310BD51
:1059F000C80FC018013810BD18B4044B5B6AFC46D0
:105A0000019308BD24DF756000100000AC5D01202B
:105A100018B4044BDB6DFC46019308BD5CDF7D616F
:105A200000100000AC5D0120C94211D300B549004F
:105A30004908002200F018F8002904D4002240424E
:105A40008A41114600BD80210906002000BD0000EA
:105A500018B4044BDB6EFC46019308BD6CDF836019
:105A600000100000AC5D012018B4044B9B6FFC4695
:105A7000019308BD78DF9F6000100000AC5D01203D
:105A800018B4044BDB6FFC46019308BD7CDF096151
:105A900000100000AC5D012070B513231C78012CB0
:105AA00007D0012C0EDC022C02DC1C4A1C4B9A6431
:105AB00070BD00231F2BF4D899001848184A88504D
:105AC0000133F7E71748FFF725FC05001648FFF7F5
:105AD00021FC023803789B007F2B19DD80222900EE
