:020000041000EA
:1000000000B5324B212058609868022188439860DF
:10001000D860186158612E4B002199600221596106
:100020000121F02299502B49196001219960352056
:1000300000F044F80222904214D00621196600F024
:1000400034F8196E01211966002018661A6600F04E
:100050002CF8196E196E196E052000F02FF8012189
:100060000842F9D1002199601B49196000215960AB
:100070001A491B48016001219960EB211966A021F2
:10008000196600F012F800219960164914480160C1
:100090000121996001BC002800D000471248134993
:1000A000086003C880F30888084703B5996A0420EC
:1000B0000142FBD001200142F8D103BD02B5186610
:1000C0001866FFF7F2FF186E186E02BD00000240BE
:1000D000000000180000070000035F00212200005C
:1000E000F4000018222000A00001001008ED00E03C
:1000F00000000000000000000000000074B24E7A12
:1001000000200420F7010010C3010010C5010010F9
:10011000C1010010C1010010C1010010C101001097
:10012000C1010010C1010010C1010010C701001081
:10013000C1010010C1010010C9010010CB01001065
:10014000CD010010CD010010CD010010CD01001037
:10015000CD010010CD010010CD010010CD01001027
:10016000CD010010CD010010CD010010CD01001017
:10017000CD010010CD010010CD010010CD01001007
:10018000CD010010CD010010CD010010CD010010F7
:10019000CD010010CD010010CD010010CD010010E7
:1001A000CD010010CD010010CD010010CD010010D7
:1001B000CD010010CD010010CD010010CD010010C7
:1001C00000BE00BE00BE00BE00BE00BE00F04BF888
:1001D000103800BEF2EB88719C7C0110C87C0110C5
:1001E0003402001090A31AE700202149086006C8D5
:1001F00081F3088810471F48006800282FD10DA4FC
:100200000ECC002902D000F012F8F9E71A491B4A77
:10021000002000E001C19142FCD1194988471949E9
:1002200088471949884700BEFDE701C901C29A42C3
:10023000FBD37047C87C0110C0000020A811022029
:10024000B08D03100000042000000420B08D0310C6
:1002500000100420001004200000000070470B482C
:1002600004F0F6FE0047EFF30580C0B270470000CF
:1002700008ED00E0000000D0A8110220D83F0220C5
:10028000F1340010591700100536001057560000C1
:1002900006005250ABB3605314590110060052507F
:1002A000861C030224590110060052505422A29DBC
:1002B0003059011005005250DE65F468B08D03100E
:1002C000F8B5C0460448054B10B5834203D0044B33
:1002D000002B00D0984710BDA8110220A8110220C1
:1002E0000000000006480749091A8B10C90FC918F9
:1002F00010B5491003D0044B002B00D0984710BD17
:10030000A8110220A81102200000000010B5074C1F
:100310002378002B09D1FFF7D5FF054B002B02D026
:10032000044800E000BF0123237010BDB01202207A
:1003300000000000A8440110054B10B5002B03D0AD
:100340000449054800E000BFFFF7CCFF10BDC046E0
:1003500000000000B4120220A84401107047000001
:10036000014B01221A607047441D022070470000B3
:10037000F0B5DE4657464E464546E0B585B0D0233B
:100380001B065A685D682D09012215405968596895
:10039000C90911408B465B689B081A400192D74BF4
:1003A0001B68012B06D0D54A1368591C1160D44A2A
:1003B0004921D154D14B1B68012B06D0CF4A136879
:1003C000591C1160CE4A4E21D154CC4B1B68012BD5
:1003D00006D0CA4A1368591C1160C94A4921D15430
:1003E000C64B1B68012B09D0C44A1368591C116005
:1003F000C34A5421D1545B460093FEE05B46009310
:10040000FBE0002A00D015E1002E66D1BB4F3F680B
:10041000012F11D0B94CA1462468A34601245C44A5
:10042000A2464C4657462760B54CA1466324A246D7
:100430004C465F465346E355B24FB9463F68BA460D
:100440000227BB46DA444F4654463C603C68A2460D
:1004500001245746A7434C462760AB4C24786307DA
:1004600031D5A84B9A461B689B46FF235C461C402F
:1004700053461C60A14C2468012C0ED0A14B1B6874
:100480009E4CA1462468A34601245C44A2464C46E7
:10049000574627609A4C5F46E355984C2468012CD8
:1004A00000D1C7E0974B1B681B12944CA1462468EF
:1004B000A34601245C44A2464C4657462760904C14
:1004C0005F46E355B6E08F4B9A461B68DB03DB0BB8
:1004D000994653464C461C60CCE7884C2468012C56
:1004E00000D1A7E0854B99461B689B4601245C44DC
:1004F0004B461C60824B99467A239A464B465C4693
:1005000057461F5596E07D4D2D68012D00D1D7E04F
:100510007A4CA44625686C1CA14664464F46276069
:10052000774CA4465A24A14664464F466755C7E017
:10053000002E1CD04046002819D0704800680128C1
:1005400006D06E4C2068451C25606D4C69252554ED
:10055000D0200006802424058461FF242402446204
:10056000802464004461FE242402846112E0D020CF
:100570000006802424058461FF2424024462614D26
:100580002D68624F3F683D435F4F7D5D2D024561A1
:100590006C4084610198012800D1B9E000980028DE
:1005A00027D1002E25D055480068012806D0534C8D
:1005B0002068451C2560524C522525544F48006840
:1005C000012806D04D4C2068451C25604C4C452523
:1005D00025544A480068012806D0484C2068451C2C
:1005E0002560474C532525540020464C2060474C3D
:1005F0002060029B019300911500D0273F06786888
:10060000C008012318407A681209190011408C466D
:100610000A007C68A4091C4003947968C9091E007B
:100620000E4031007F68BF081F40B8460297012D79
:1006300000D1E6E6002D43D16546002D40D0002EC6
:1006400000D060E72F4DAC462D6801273D4367463B
:100650003D602A4D2D68012D0ED0284CA4462568FA
:100660006C1CA14664464F462760254CA446432493
:10067000A14664464F466755204D2D68012D0DD08B
:10068000204D2C68A1461D4CA44625686C1CA24632
:100690006446574627601A4C4F466755174D2D68DC
:1006A000012D0DD0174D2D682D12144CA146246834
:1006B000A446012767444C462760114C6746E55520
:1006C000002800D066E7039B002B00D130E7D02044
:1006D0000006FF24240284628024240544614461CE
:1006E00040680012C0B2002E00D053E7054C2468C9
:1006F000064D2D682C43044D28554BE7881D0220DC
:10070000083D0220681D02207C0600206C1D02208E
:100710004046002800D041E70A480068012806D07A
:10072000084C2068451C2560074C50252554074877
:1007300004680134FF3404600468FE25ED012C4098
:1007400004602BE7881D0220083D02206C1D02205A
:1007500082B00023019308E0009B01330093009BCB
:10076000092BF9DD019B01330193019B834202DADE
:1007700000230093F3E702B07047D0231B068021CB
:1007800049055962802292025A6299619A617047C2
:1007900010B50120002102F079FA10BDD0231B060C
:1007A000802252055A629A617047D0231B0680222C
:1007B00052059A627047D0231B06802292025A6229
:1007C0009A617047D0231B06802292029A6270477A
:1007D000D0231B065B681B0F01201840704710B523
:1007E0000400FFF7DBFF2000FFF7D2FF2000FFF738
:1007F000E2FF2000FFF7CCFF10BD10B50400FFF7AB
:10080000E1FF2000FFF7C4FF2000FFF7CEFF20002C
:10081000FFF7BEFF10BD70B504000D00002614E008
:100820002000FFF7C2FF2000FFF7B2FF2000FFF714
:10083000C9FF2000FFF7ACFF2000FFF7BCFF20003E
:10084000FFF7A6FF6D00EDB20136072E06DC6BB296
:10085000002BE5DB2000FFF7A1FFE4E72000FFF716
:10086000A4FF2000FFF7AEFF2000FFF791FF6425F3
:100870002000FFF7ADFF002803D0013D002DF7D188
:1008800000E001252000FFF796FF2000FFF780FF22
:10089000280070BD10B51C2001F0C4FB112001F030
:1008A000C1FB10BDF8B5CE46474680B506000F0027
:1008B00015009846089B99460068FFF790FF31792C
:1008C0004900C9B23068FFF7A6FF4346002B01D0AC
:1008D00000240AE040213068FFF79DFFF8E78021FF
:1008E0003068FFF798FF05E00134BC420BDA43465D
:1008F000002BF4D129783068FFF78DFF4B46002B91
:10090000F2D10135F0E73068FFF777FF0CBC904675
:100910009946F8BD10B584B0040081236A4613736C
:100920000802401A642104F0BFFB6B465873002391
:100930000093013303AA02212000FFF7B3FF04B0A4
:1009400010BD70B584B0CC17640E09197F2319400F
:10095000091BD3179B0ED2183F242240D21AD3175B
:10096000383C1C40A418E410503C03AA1470CD1766
:100970002E0F8C190F231C40A41B54702B405B18A6
:100980001B11103393700023009301330321FFF7F1
:1009900089FF04B070BD00B585B00F226A44002302
:1009A000137000930121FFF77DFF05B000BD00002B
:1009B000F0B5C64600B582B005000E0008000EF086
:1009C00013FD07000024BC4213DA731C98463378E9
:1009D000203B9A00D218094BD2180023009305211E
:1009E0002800FFF75FFF2800FFF7D5FF01344646D8
:1009F000E9E702B004BC9046F0BDC0469C47011038
:100A000030B583B0050000240DE02200002128004D
:100A1000FFF797FF012300930023054A8021280058
:100A2000FFF740FF08343F2CEFDD03B030BDC04678
:100A3000B01D022070B50500084C2000FFF7E0FF54
:100A4000002200212000FFF77CFF29002000FFF793
:100A5000AFFF0348FFF77CFE70BDC0467406002060
:100A6000C0C62D0010B582B004000068FFF785FEF7
:100A700000230C4A934201DC0133FAE72068FFF7B8
:100A8000AEFE2068FFF7B9FE002300930133064A4B
:100A90001E212000FFF706FF2000FFF7B1FF02B084
:100AA00010BDC0460F270000CC49011010B5094BFE
:100AB00000221A700132084908480BF0DDFA0028BC
:100AC00003D1044B01221A7010BD0548FFF7B2FF95
:100AD000FAE7C046AE1D0220A8440110983A022051
:100AE000AC44011010B50022024900200BF0C4FAFA
:100AF00010BDC046A8440110030000201A780C2A3B
:100B000002D001301033F9E77047000070B58AB0A9
:100B1000040020480BF0DCFF1F480BF0EBFF00281F
:100B200002D100200AB070BD2000FFF769FF00224B
:100B300000212000FFF705FF6D46184B2A0043CB2C
:100B400043C21B88138029002000FFF731FF0822D1
:100B500000212000FFF7F5FE114B2A0003CB03C252
:100B60001B88138029002000FFF722FF102200219C
:100B70002000FFF7E6FE084B1A6800921B792B71E4
:100B800029002000FFF714FF0648FFF7E1FD0120D0
:100B9000C8E7C046A8440110B8440110C044011081
:100BA000D0440110C0C62D0010B5324CA54400231E
:100BB000314A13606093FB22002161A805F002FB1B
:100BC0002E48FFF7A3FF002803D0A0239B009D44DD
:100BD00010BDFF2160A80BF0EBFF041E21D160A91E
:100BE000274805F08DFC582200214AA805F0EAFAB2
:100BF00090225200002102A805F0E4FA214B0022C5
:100C00001A60214B60AA02A94AA80CF03CF9041E04
:100C100013D00DF04DFA010022001C4805F070FCC5
:100C2000D3E70DF045FA01002200194805F068FCF1
:100C3000CBE702A94AA80CF00DF9002815D102ABA8
:100C40009B7E002B11D002AB1B7BDB06F1D401AAEB
:100C50001049222068440EF0DBFA019B094A126811
:100C60009342E6DD074A1360E3E74AA80CF0A3F8D5
:100C7000ABE7C04680FDFFFFB81D022074060020D0
:100C8000F8440110381D0220104501101C450110C8
:100C9000DC44011038450110F0B5C64600B5684C7B
:100CA000A54405008846FFF701FF2800FFF72EFF47
:100CB000041E38D12800FFF7A3FE002200212800DF
:100CC000FFF73FFEB4AE5F4B320083CB83C21B788D
:100CD000137031002800FFF76BFE08220021280066
:100CE000FFF72FFE414630000EF076FB3100280062
:100CF000FFF75EFE5448FFF72BFD012241461CA87A
:100D00000BF0E8F9002811D100231A9301AB06AAD1
:100D10004E4940460EF07CFA02282DD0002398461A
:100D20002700002640E0FFF7DDFE83E0B4AC484B2F
:100D3000220043CB43C21B6813602800FFF760FE0C
:100D4000002200212800FFF7FCFD21002800FFF70A
:100D50002FFE072200212800FFF7F3FD4146200067
:100D60000EF03AFB21002800FFF722FE3948FFF77A
:100D7000EFFCFFF7B7FE5DE0374901A80EF0E8FA97
:100D8000061E09D000239846CAE71AAB01221BA908
:100D90001CA80BF04DFB0136052EF6DD012398460D
:100DA000BEE7220093420CDC002E11D11AAB0122C7
:100DB0001BA91CA80BF03CFB1A9B002BF1D10126B0
:100DC000F2E71BA9885C2549C85501320137E9E7DC
:100DD0001CA80BF066FE102200212800FFF7B1FDD1
:100DE0003A001F49B4A804F007F9B4A92800FFF796
:100DF000DFFD4346002B18D0184B5B78102B02D92F
:100E0000164B10225A70002109E0144A135D601C31
:100E1000125C1B02D21892B2511889B20234072C0C
:100E2000F3DD0E4B0A0A1A7259720A48FFF790FC5A
:100E3000FFF758FEBE239B009D4404BC9046F0BDC6
:100E400008FDFFFF4445011040420F0064450110BA
:100E500054450110C0C62D00E44501107C06002059
:100E600070450110F0B5C7B00400FFF71FFE200069
:100E7000FFF74CFE002859D12000FFF7C1FD0022EA
:100E800000212000FFF75DFD3CAD5E4B2F0006CB3F
:100E900006C71A883A809B78BB7029002000FFF7AC
:100EA00087FD082200212000FFF74BFD564E2A0047
:100EB000330003CB03C21A883A809B78BB702900A9
:100EC0002000FFF775FD5148FFF742FC5049300004
:100ED0000DF0C8F9071E54D13CAD4E4B2A0043CB50
:100EE00043C21B6813602000FFF78AFD0022002127
:100EF0002000FFF726FD29002000FFF759FD0722FB
:100F000000212000FFF71DFD3F4B2A0003CB03C249
:100F1000198811809B78937029002000FFF748FD05
:100F20003D48FFF715FCFFF7DDFD68E0FFF7DAFD50
:100F300065E03A4D14A928000EF04EFA2900384811
:100F4000FFF7AAFE4FE0374D2A00374914A80EF0EC
:100F50005FF929683248FFF7DDFC2000FFF750FDFC
:100F6000002200212000FFF7ECFC2A682F493CA852
:100F700004F042F83CA92000FFF71AFD2648FFF7CD
:100F8000E7FB3A004F2128A80DF0A9F9002831D03D
:100F900028AD28000EF028FA013800232B546A46A9
:100FA000137014AE33702000FFF72AFD00220021D9
:100FB0002000FFF7C6FC2A001D493CA804F01CF8DD
:100FC0003CA92000FFF7F4FC1348FFF7C1FB3300F6
:100FD0006A46184928000EF01BF9174968460EF0BA
:100FE000B7F90028A5D0154968460EF0B1F90028D8
:100FF000C7D1A8E738000DF05CF9FFF773FD47B0E3
:10100000F0BDC046804501108C45011040420F00E4
:101010009052011054450110C0C62D00682D0220C9
:101020007406002060060020C4450110C845011068
:1010300098450110A0450110AC450110B8450110BC
:1010400010B53B4CA54400230D93FFF72FFD394805
:10105000FFF75CFD002855D1FFF7A6FD364B1A6857
:1010600001321A603549A7A803F0C6FF314C2000B1
:10107000FFF7C6FC002200212000FFF762FC304988
:101080002000FFF795FC082200212000FFF759FC03
:10109000A7A92000FFF78CFC0622A7A90EA80BF039
:1010A00019F8002801D0082832D1264B1A6801927D
:1010B0009A8801AB9A800DAB062201A90EA80BF00D
:1010C000E0FA80220DAB92021F490EA80BF0D9FA6C
:1010D0000D9B06330D930EA80BF0E3FC041E1DD1EF
:1010E000144C182200212000FFF72BFC0D9A174901
:1010F00003A803F081FF03A92000FFF759FCFFF7C5
:10110000F1FC01E0FFF7EEFCAC239B009D4410BD19
:101110000F48FFF78FFCFFF7E5FCF5E70CF0C8FF81
:10112000010022000B4805F0EBF9FFF7DBFCEBE7D1
:1011300050FDFFFF74060020381D0220DC45011021
:10114000E8450110744701107C0600201446011088
:10115000F0450110FC450110F0B58FB007002C4B95
:101160001E68FFF74DFC01256D42002412E0103689
:1011700010E07268274901A803F03EFF1EE0E2007C
:1011800000213800FFF7DDFB01A93800FFF710FC54
:101190001036013433780C2B1FD001351E4B1B68E1
:1011A000AB42E4DCEB1A032B17DC1C4B1B68AB4295
:1011B000DFD072681A4901A803F01EFF33780A2BAA
:1011C000DDD00B2BE4D1E20000213800FFF7B9FBA2
:1011D00001A93800FFF7ECFBDAE70D4B1868FFF7C1
:1011E0008BFC0E4B1B68984202DC01380B4B1860DD
:1011F000022C0ADCE20000213800FFF7A2FB0949BB
:101200003800FFF7D5FB0134F2E70FB0F0BDC04660
:10121000602D0220204601103C1D0220401D0220AE
:101220002846011030460110F0B55A4CA544002361
:10123000594A13607C93FB2200217DA804F0C2FF71
:10124000FFF734FC5548FFF761FC041E29D15448D0
:101250000BF03EFCFF217CA80BF0AAFC051E23D15D
:101260007CA9504805F04CF95822002166A804F0EA
:10127000A9FF9022520000211EA804F0A3FF4A4BB0
:101280007CAA1EA966A80BF0FEFD051E1BD00CF063
:101290000FFF01002A00454805F032F9FFF722FC54
:1012A00073E0FFF71FFC70E00CF002FF01002A0062
:1012B0003F4805F025F9FFF715FC66E001341EA94B
:1012C00066A80BF0C7FD00283BD11EAB9B7E002B10
:1012D00037D0314B1B68C72B33DC1EAB1B7BDB06C7
:1012E000EDD400236A4613706B460AAA3149922056
:1012F00068440DF08DFF0028E1D02F4968460EF0BC
:1013000027F80028DBD12D4B1B68A342D6DC224FE7
:101310003E68B500AD19AD00294BED18142292219D
:10132000694428000EF094F8264A310153185D6094
:101330000A20885400229A60234ADA6001363E600F
:10134000BCE766A80BF037FD134B1A681D49100166
:101350000B181E4C5C600C244454002199601A49FF
:10136000D960002A01D01A4B1A601A4B1A4A9A60A7
:101370001A4A5A611A4A1A6212491A4B1960002213
:101380000648FFF7E9FEFFF7ADFBBD239B009D4438
:10139000F0BDC0460CFDFFFFB81D02207406002002
:1013A000A844011040460110584601101C45011088
:1013B000DC44011064450110E445011028190220A5
:1013C000BC1D0220802D02205D030010F44401109A
:1013D00024190220103A022015150010591500108A
:1013E0001D140010602D022010B50023064A136062
:1013F000064A1360064B1968064B1960012206481D
:10140000FFF7AAFE10BDC046401D02203C1D022071
:10141000003D0220602D022074060020F0B5CE466B
:10142000474680B58BB0264B99461B681A01254B61
:101430009B185968244E30000DF0CEFF00239846CB
:10144000224B42461A60224D2800FFF7D9FA0022AB
:1014500000212800FFF775FA6C461E4B220083CB53
:1014600083C219001B8813808B7893702100280099
:10147000FFF79EFA0E2200212800FFF762FA3100E2
:1014800020000DF0A9FF21002800FFF791FA124873
:10149000FFF75EF931002800FFF7FEFB43464A469E
:1014A00013600020FFF7A0FF0C4B0D4A9A600D4A15
:1014B0005A610D4A1A620BB00CBC90469946F0BDB9
:1014C000401D0220802D0220682D022028190220B4
:1014D000740600205C460110C0C62D00103A0220A0
:1014E00015150010591500102116001010B5012017
:1014F000FFF7A6FD0448FFF72BF9044B19680122FA
:101500000348FFF729FE10BDC0C62D00602D022044
:101510007406002010B50C4A1368013B1360002BC1
:101520000EDD0A4B1A68084B1B689A4201DD074A18
:101530001360074B196800220648FFF70DFE10BD27
:10154000130000221A60ECE7401D02203C1D02201F
:10155000602D02207406002070B5124B1E68751CA9
:101560001D60114B1C682000FFF7C6FA854211D0A0
:101570000C4B1B680D4A12689A1A022A04DD023BC2
:101580000A4A1360002B08DB002221000848FFF7FD
:10159000E3FD70BD034B1E60EAE7130000221A60F2
:1015A000F2E7C046401D0220602D02203C1D0220B3
:1015B0007406002070B58AB00023632B04DC134A44
:1015C000FF21D1540133F8E7114C2000FFF718FA3E
:1015D000002200212000FFF7B4F969460D4B0A00F4
:1015E00061CB61C218001B88138083789370200040
:1015F000FFF7DEF90848FFF7ABF8084B196801223E
:101600002000FFF7A9FD0AB070BDC0467C0600208F
:10161000740600206C460110C0C62D00602D02200B
:1016200070B50E4B1C68002509E00C4BA2681A60CF
:101630000122A1680A48FFF78FFD01351034237895
:101640000C2B09D0074A1268AA42F6D10B2BECD01A
:101650002000E3689847F0E770BDC046602D022087
:1016600074060020401D022010B500220BE00B4B39
:101670005100881884000020E0501B19187158711F
:10168000074999600132022AF1DD044B054A9A604C
:10169000054A5A61054A1A6210BDC046103A022036
:1016A0006D030010151500105915001021160010BB
:1016B00010B500242BE063001B199A00244BD3586B
:1016C000002B0BDD013B620012199100204A8B5068
:1016D000002B03D11E4B5B1800221A7163001B19EB
:1016E0009A001B4B9B185B79002B08D0184B9B185A
:1016F0001B79002B03D1164B9B189B6898476200FF
:1017000012199100124B5B181A795A710134022C8C
:101710001CDCA3000F4A9A58D0231B065B68D340F9
:10172000DB07C8D463001B199A00094BD358052B5B
:10173000D4DC0133620012199100054A8B50062B4C
:10174000CCD1034B5B1801221A71C7E710BDC0460C
:10175000103A022064060020F0B5DE4657464E4699
:101760004546E0B59FB00B22C349C44804F030FDA4
:1017700004F0D2FEC24804F093FEC24804F0C0FE5A
:10178000162000F04FFCD0231B068022D2039A6162
:101790005A629A61032000F045FC042000F042FCEC
:1017A000072000F03FFC062000F03CFC022000F087
:1017B00039FC002405E0A200B34BD05800F032FC05
:1017C0000134072CF7DDD02424060823A362083354
:1017D000A3627033A362403BA3623C3BA3621B2025
:1017E00000F020FC80231B0563616362FF2212026C
:1017F000A2626361A54804F083FE0CF061FBA4487B
:1018000004F07EFE0024022C10DCA24DA6007059CC
:1018100000F008FC705901238340D0221206936225
:101820000022012100F0E4FB0134ECE71A2000F073
:10183000F9FBD0231B068022D2049A6200220121E8
:101840001A2000F0D5FB944804F05AFE9348FFF7A5
:1018500021F8934C2000FFF705F9924B924A136050
:10186000924A1360924A13600020FFF7BDFDFFF714
:10187000FBFE904807F052FD00210F2002F05EF8B9
:101880002000FFF7EFFA25E38B498548FFF790F832
:1018900065E3002D00D024E2002C00D19CE0D02391
:1018A0001B069846FF231B02994643464E469E62FE
:1018B00080231B05994643464E465E615E615B6828
:1018C0001B12DBB20993089B002B29D07B4B1B68B2
:1018D000012B11D0794B99461B689846012343444C
:1018E0009A464B4652461A60754B994673239A4660
:1018F0004B46424656469E54704B1B68012B00D106
:10190000EFE16E4B99461B689846012343449A4683
:101910004B4652461A606A4B4246099E9E54E0E18D
:10192000664B1B68012B11D0644B99461B68984687
:10193000012343449A464B4652461A60604B9946EF
:1019400057239A464B46424656469E545B4B1B686D
:10195000012B0DD0594B99461B68984601234344EF
:101960009A464B4652461A60554B4246099E9E5433
:10197000524B1B68012B0DD0524B1B689A464F4BA4
:1019800099461B6898465E1C4B461E604C4B42466F
:1019900056469E54494B1B68012B0ED0494B1B6881
:1019A0001B129846454B9A461B6899465E1C534647
:1019B0001E60434B4A4646469E54424B1B6899461E
:1019C000414B1B6898464B464646334398463F4B2F
:1019D0004646099A9A5584E1089B002B78D0002E40
:1019E00076D0D0231B06984680231B059946434694
:1019F0004A469A61FF231B02994643464A465A6269
:101A00002E4B1B68012B11D02C4B99461B68984616
:101A1000012343449A464B4652461A60284B994646
:101A200049239A464B46424656469E54234B1B68D2
:101A3000012B11D0214B99461B6898460123434442
:101A40009A464B4652461A601D4B994601239A46C8
:101A50004B46424656469E54D0231B06984680234A
:101A60005B00994643464A465A61FE231B0299464B
:101A700043464A469A6134E17C460110682D0220B3
:101A800088460110944601107C470110A8460110B9
:101A9000C846011064060020E046011070060020D0
:101AA000740600207C490110602D0220043D0220B4
:101AB000003D0220710300101C470110881D022008
:101AC000642D0220681D02206C1D02207C0600206F
:101AD000D0231B06984680231B05994643464E4655
:101AE0009E61FF231B02994643464E465E62B04B01
:101AF0001B68012B11D0AE4B99461B6898460123F9
:101B000043449A464B4652461A60AA4B9946722362
:101B10009A464B46424656469E54A54B1B68012B9F
:101B200011D0A54B1B689A46A14B99461B68984655
:101B30005E1C4B461E60A14B52469B5C9A469D4BD9
:101B4000424656469E549C4B1B6899469C4B1B68CC
:101B500098464B46464633439846984B46469B5DCF
:101B60001B029846D0231B069A4646465E61FF2319
:101B70001B02994643464E46734098465346464696
:101B80009E61AEE08A4F3F68012F0ED0884B984689
:101B90001F687B1C994643464A461A60854B984607
:101BA0007723994643464A46DA55814F3F68012FCD
:101BB0000AD07F4B98461F687B1C994643464A468D
:101BC0001A607C4B5246DA55794F3F68012F09D095
:101BD000794F3B689946764B1F687E1C1E60754B9B
:101BE0004A46DA55724F3F68012F0CD0724F3F685A
:101BF0003F126F4B99461B6898465E1C4B461E6011
:101C00006C4B42469F546C4F3B686D4F3F681F437F
:101C10006A4B5646DE55019B002B0FD16346002BC5
:101C20000CD0002D0AD1002C00D195E0D0252D0636
:101C3000FF273F02AF6280273F056F61039B002BA8
:101C400005D1089B002B02D05B4D00262E60029B25
:101C5000002B0FD1002C0DD0D0252D06FF263602EB
:101C6000AE62802636056E610143CB0702D429009F
:101C70006E614968002C07D0D0210906FF200002C0
:101C80008862802000054861079B0393069B0293AE
:101C9000059B0193049FD0231B065B685B0100D466
:101CA000FEE0D02000064168C908012635000D403D
:101CB000049543681B0932001A4094460592436814
:101CC0009B0934001C4006944268D209330013403B
:101CD00008930793406880080640B346012F00D15F
:101CE000D7E5002F97D1002D95D0D0273F06FF23B1
:101CF0001B02BB6280231B057B61002C8BD07B61A8
:101D00007F683F12FBB29A46089B002B00D139E74F
:101D1000274F3F68012F0ED0254B98461F687B1C2C
:101D2000994643464A461A60224B98467323994681
:101D300043464A46DA551E4F3F68012F00D16AE7F5
:101D40001B4B98461F687B1C994643464A461A60BF
:101D5000184B5246DA555EE7089B002B32D05B46A3
:101D6000002B2FD0124D2D68012D06D0104F3D684D
:101D70006B1C3B600F4F49237B550D4D2D68012D8A
:101D800006D00B4F3D686B1C3B600A4F44237B55CC
:101D9000D0252D0680273F05AF61FF273F026F62E8
:101DA00080277F006F61FE273F02AF6146E7C04694
:101DB000881D0220642D0220681D02207C06002060
:101DC0006C1D02206F4D2D68012D06D06D4F3D68B2
:101DD0006B1C3B606C4F52237B556A4D2D68012D67
:101DE00006D0684F3D686B1C3B60674F44237B55B2
:101DF000644D2D68012D10D0644D2F68644D2D6801
:101E00003D43604B9C461F687B1C98466346424698
:101E10001A60604B5B5D5C4DEB555A4D2D68012D92
:101E200010D05A4D2D685A4F3B689846554B9C46EA
:101E30001F687B1C994663464A461A6043461D4309
:101E4000514BDD554F4D2D68012D0FD04F4D2D6855
:101E50004F4F3F683D432D124A4B9C461F687B1CE9
:101E60009846634642461A60474BDD55D0252D06FD
:101E700080273F05AF61FF273F026F62434B1B681E
:101E80009846434B1B689C464346664633439C46F4
:101E9000404B66469B5D1B026B615F40AF61CDE6C8
:101EA0003D4C2000FEF7ACFD002200212000FEF793
:101EB00048FD3A492000FEF77BFD394B19680122A5
:101EC0002000FFF749F9374B00221A60354B1B6899
:101ED000002B54D0D0231B065968C9080122114099
:101EE0000F00596809091140019159688909114089
:101EF00002915968C9090A4003925B682A4804F0B4
:101F0000CFFA04F0BDFA244C2000FEF779FD002240
:101F100000212000FEF715FD24492000FEF748FDB2
:101F200023490AA80DF058FA0E2200212000FEF7DE
:101F300008FD0AA92000FEF73BFDFEF7B7FDFEF7FE
:101F4000D1FD152200212000FEF7FBFC194B1B7868
:101F5000002B00D198E418490F48FEF729FD0E4CDC
:101F60001C2200212000FEF7ECFC14492000FEF7A3
:101F70001FFD232200212000FEF7E3FC8BE6FFF784
:101F800097FBA3E7881D0220642D0220681D022014
:101F90006C1D02207C0600207406002040470110C2
:101FA000602D0220441D0220F4460110004701105C
:101FB000682D0220AE1D0220104701102C47011091
:101FC00010B58300084A944663441C68402262406E
:101FD000C02414408022520113431C60C000034BF4
:101FE0009C466044416010BD04C001400040014077
:101FF00080000B4B9C46604400290DD00823002A2A
:102000000CD004221343026853400C221340802258
:1020100052011043036070470023F0E70022F1E70C
:1020200004C0014010B501238340D0221206936200
:1020300093610521FFF7C4FF10BD0000EFF310808E
:1020400072B6034B1B68002BFBD0BFF35F8F70474A
:102050002C0100D0BFF35F8F024B00221A6080F387
:10206000108870472C0100D0F8B506000C00150050
:10207000FFF7E4FFE308F718F15C07222240012391
:1020800093400B4205D1DBB20B433B70FFF7E2FFFD
:10209000F8BD2100280001F0D7FAF0B583B00600A2
:1020A000019114001F00FFF7C9FFBC420ED8E308DE
:1020B000F518F35C0721214001228A401A4201D021
:1020C0000134F2E7D2B21A432A7001E001246442DB
:1020D000FFF7C0FF002C02DB200003B0F0BD019B26
:1020E000002BF9D0089801F0AFFA0000034B1B68F1
:1020F00002201840431E9841C0B2704700C00640FD
:1021000000231F2B08D8054A9A189200BFF35F8F4F
:10211000002111600133F4E77047C04640000034ED
:10212000054A1078431CDBB21370172B02D9130039
:1021300010221A707047C0467C06022000B583B09A
:102140000100044B00931F2318220348FFF7A5FF4B
:1021500003B000BDEC4901108C18022070B50400DA
:102160000D00062001F08AFBC000290002F0C4FF28
:10217000C60908D00E4B9E4217D87F231840013065
:102180003500460800E001256562A6622C348020F7
:102190008001044300232360062001F06FFB8000D0
:1021A000A901891902F0A8FF70BD0026014DEBE7D7
:1021B000FEFF0000FFFF0000002909D00A22064BA5
:1021C0009C466044434258414000044BC252704711
:1021D00080225200F3E7C0460080FCBF0C3D022085
:1021E00070B505000C00062001F048FB002829D03E
:1021F000164B9D4227D08022D203154B1A60154BF7
:102200001A60154B9B6811009943FAD100212800F0
:10221000FFF7D2FF21002800FFF7A0FF2C002C348D
:10222000E96A60224A406E21114080225201224315
:1022300011600A4B2B6380239B01234310221A60F9
:102240000323AB6470BD80221204D6E700800340F4
:1022500000E0004000F0004000C00040010300002A
:1022600070B505000C00080000F0C2FD200000F071
:10227000C9FE0849200000F009FEFFF751FF064B98
:102280009C466044800068602C75A400034BE550B8
:1022900070BDC046A5250010400000344C1D022032
:1022A0000A4B1A68EFF3108172B61368002BFCD04A
:1022B000BFF35F8F054B1B68BFF35F8F00221A606F
:1022C00081F3108840BF002000217047641D022068
:1022D00010B5002922D003681B7B99421ED8174BEA
:1022E0009C466144090183689C4661440C684968C6
:1022F000002A19D003681B7B9A4215D883680F48BF
:102300008446624412019A18106853680200012042
:102310008B4201D80ED00020C0B210BD084B094A34
:102320003B21094801F072F9054B064A3B2106485A
:1023300001F06CF9A242EFD8EDE7C046FFFFFF0FB6
:10234000604A0110404D01101C4A011010B50029CF
:102350001ED0037B99421BD84B005B18033B0468DB
:10236000A4466344002919D0002A1DD0914221D0EF
:10237000002A25D0047BA24222D80468500080188D
:10238000033820188170197800291FD11A7010BDE8
:10239000104B114A6921114801F038F9104B114ACC
:1023A00070310E4801F032F90F4B0E4A71210B4883
:1023B00001F02CF90D4B0B4A7221084801F026F967
:1023C000044B054A6921054801F020F941701A7053
:1023D000DDE7C046944A0110004D0110B04A0110DB
:1023E000044B01100C4D0110104B01101C4B01103F
:1023F00070B506000D001400002914D0002A14D076
:10240000806873689847002806D0220029003000B1
:10241000FFF79CFF280007E02A0021003000FFF7AB
:1024200095FF200000E0100070BD0800FCE70000F0
:10243000F0B583B00500009201930AAB1C780BAB9A
:102440001F78002C26D003685A7B944207D10123C1
:10245000002B19D1002C3BD1200003B0F0BD002C83
:102460000CD01A7B944209D81A6863001B19033BED
:10247000D3189B78002BEBD00123E9E73E4B3F4A72
:1024800069213F4801F0C2F83E4B3F4A65213F4871
:1024900001F0BCF803689C7B002CDBD012D01A7BC7
:1024A00094420FD862001219033A19688C466244AC
:1024B00051789973002900D1D97300239370537018
:1024C0001370C7E72C4B2D4A69212D4801F09EF867
:1024D000002C3AD02B681B7B9C4236D82C4BE3183F
:1024E0001B01AA6894466344009A1A60019A5A60D4
:1024F000089A9A60099ADA602E68002C2BD030D0A6
:10250000337B9C422DD863001B19033B32689446F1
:10251000634400229A705A701A70717B2200300056
:10252000FFF766FF7073844200D095E7287D009A1C
:10253000019B00F0F3FC061E01D0002F17D00C9B6E
:10254000002B00D188E71E7086E7124B124A3B2110
:102550000E4801F05BF8114B114AA621084801F022
:1025600055F8054B054A6921054801F04FF82868E0
:10257000210000F041FFE2E7944A0110004D0110F4
:10258000B04A0110344B0110784D01101C4A011063
:10259000FFFFFF0F604A0110404D0110184A011063
:1025A000204D0110F0B5DE4657464E464546E0B593
:1025B0008BB00990002308938200B34BD6583700A4
:1025C00052E0B24BB24A3D21B24801F01FF8B24B83
:1025D000B24A3B21B24801F019F8002901D1002884
:1025E00069D10021404600F0FDFEA04219D12A68C1
:1025F0006B6806920793AB689846EB689A46434629
:10260000002B14D0002C18D03B681B7B9C4214D8A4
:10261000631EFA68D35C08931B02184338610020DC
:1026200015E0A04BA04A8C219D4800F0EFFF9F4B86
:102630009D4A90219A4800F0E9FF974B9C4A40211F
:10264000974800F0E3FF00239A46984600207B68F5
:10265000BFF35F8F00221A6086F310884346002B79
:1026600032D1002800D107E100F0CEFB02000B1EA2
:10267000A7DB00200021069007917868EFF3108611
:1026800072B601680029FCD0BFF35F8F39688846B5
:102690004C7B002CD7D09AD0097B8C4297D88549A7
:1026A00065182D01B9688C46654428686968801AE8
:1026B0009941002991DD2A686B68099800F02EFC89
:1026C00000239A469846C2E7089B1B02234399467B
:1026D00051461800C04705000E007A68EFF3108BD2
:1026E00072B6136859424B41D9B2002BF9D1BFF3EE
:1026F0005F8F002E26DB002E52DD3B69002B53D06E
:102700004B4572D100F080FB02000B1E73DB010011
:10271000180052197341984202D804D1914202D94B
:1027200001225242D317002B6BDB002104910131AF
:102730000391029451460191414600913800FFF700
:1027400077FE49E03B69002BD5D04B451CD1069A5A
:10275000079B10001900521BB341994202D804D1C3
:10276000904202D901225242D317002B12DB0021E2
:102770000491013103910294514601914146009127
:102780003800FFF755FE27E04B4B474A9F2144484E
:1027900000F03CFF3D4B3E4A3D213E4800F036FFF5
:1027A000002E01D1002DA8D13A68002C45D0537BD2
:1027B0009C422CD1012100293FD1D37B002B42D157
:1027C000D473002C52D03B681B7B9C424ED8FA68D5
:1027D000013C135D0133135500233B617A68BFF35D
:1027E0005F8F13608BF310883EE7334B2E4AA22194
:1027F0002B4800F00BFF254B254A3D21254800F0D2
:1028000005FF224B224A3D21224800F0FFFE002C0A
:102810000DD0137B9C420AD863001B19033B106840
:10282000844663449B78002BC5D00121C3E7234B2A
:10283000234A6921234800F0E9FE234B234AF7216C
:10284000204800F0E3FE002B0AD0117B8B4207D812
:102850005900CB18033B11688C4663445C70AFE7AA
:10286000164B174A6921174800F0D0FE0A4B104A50
:1028700040210B4800F0CAFE0BB03CBC9046994684
:10288000A246AB46F0BDC0464C1D02205C4B011079
:10289000E84C0110784B0110604A0110404D0110C6
:1028A0001C4A0110C84B0110904D0110E04B011063
:1028B0004C4D0110FFFFFF0FEC4B0110944A01102B
:1028C000004D0110B04A0110284C0110304D01108C
:1028D00010B50A4B5B68002B04D00A21084800F0B1
:1028E000C1FB10BD054C2300064A1021206800F0F2
:1028F00099FC03212000FFF7B3FCEEE780060220DD
:10290000641D0220D122001010B5064B5B68002B1D
:1029100001D0044810BD044B044A5C21044800F077
:1029200075FEC046800602204C4C0110604D01101F
:102930001C4A0110F0B5DE4657464E464546E0B506
:102940008BB0804616001F00149B9A46159B994633
:1029500016AB1B789B461F2302AA944663440022B1
:102960001A7032E0002809D042461268127B904269
:1029700004D8421E4146C9688A5C48E0434B444A39
:102980004021444800F042FE0798002B75D05B467A
:10299000002B72D04946D04704000D0003000B43C2
:1029A00000D171E0002946DB00F02EFA06000F1E70
:1029B00055DB36196F41B94202D804D1B04202D971
:1029C00001267642F717002F4FDB43465A68EFF394
:1029D000108472B6136859424B41D9B20791002B4B
:1029E000F8D1BFF35F8F1F3302AA94466344049368
:1029F0000023039302934B46019353460093320006
:102A00003B004046FFF714FD031EABD102004146D8
:102A10004968BFF35F8F00250D6084F31088002B99
:102A200029D01F2302A98C4663441B78002BABD10D
:102A300012021043A9E732003B00361BAF41BB42F4
:102A400002D804D1B24202D901267642F717002FEC
:102A5000BBDA114B114A3D21114800F0D7FD0E4B56
:102A60000E4A3D210E4800F0D1FD0B4B0B4A3D2193
:102A70000B4800F0CBFD012040420BB03CBC90461F
:102A80009946A246AB46F0BD0798F6E7604A0110AA
:102A90004C4D01101C4A01105C4B0110E84C011018
:102AA000784B0110F8B504004268EFF3108572B658
:102AB000136858424341D8B2002BF9D1BFF35F8F5E
:102AC000CBB22268567BB3421BD10120002847D0ED
:102AD000206988422BD0090AC9B2002B2DD020686A
:102AE000007B834229D8581EE668305C88422AD091
:102AF00000206368BFF35F8F00221A6085F310889F
:102B0000F8BD002B0DD0167BB3420AD85E00F61834
:102B1000033E1768BC466644B678002ED6D0012026
:102B2000D4E7124B124A6921124800F06FFD124B94
:102B3000124AFE21124800F069FD124B124A402150
:102B40000F4800F063FD1900100000F055FC00284C
:102B5000CFD106210D4B094AFF31094800F056FD3F
:102B600023698B42C5D100232361C2E7944A011037
:102B7000004D0110B04A0110704C0110AC4D011015
:102B80001C4A0110604A01104C4D0110944C011078
:102B9000F0B587B006000F00FDF765FB00281FD1D8
:102BA00006246442E517A4197D41BD4202D803D131
:102BB000B44201D900240025002D14DB04940595AE
:102BC00000F022F902000B1E13DBA41A9D41002D18
:102BD00017DC14D03000390000F022F907B0F0BD46
:102BE000234800F031FD234B234A3D21234800F0C8
:102BF0000DFD204B204A3D21204800F007FD002C10
:102C0000E8D0FFF781FE0023029301931C4B009351
:102C1000049A059BFFF78EFE002818DADAE70023F6
:102C200000E00023002BD5D1164B1A68EFF310817A
:102C300072B61368002BFCD0BFF35F8F114B1B687B
:102C4000BFF35F8F00221A6081F3108820BF0499C0
:102C5000059A0D4B5B6A9A42E3D80B48806A88421A
:102C600003D29A42DBD00123DCE70123DAE7C04636
:102C7000984C01105C4B0110E84C0110784B01108E
:102C8000A1220010641D022000400540F8B5040098
:102C90000D0000F0B9F802000B1E10DB2000290027
:102CA000801859418B4202D804D1824202D90120B6
:102CB0004042C117002908DBFFF76AFFF8BD064B49
:102CC000064A3D21064800F0A1FC034B034A3D2182
:102CD000034800F09BFCC0465C4B0110E84C01101F
:102CE000784B011070B584B005000C00FFF70CFEA6
:102CF000002302930193194B00932A002300FFF74E
:102D000019FE061E12DC164B5B6A9C4209D8144A57
:102D1000926AAA4208D29C4201D0012002E000201F
:102D200000E0002004B070BD0120FBE720BFFFF7EA
:102D3000EBFD3100FFF7B6FE094B5B6A9C4209D8F8
:102D4000074A926AAA4207D29C4201D00120E9E7D1
:102D50000020E7E70020E5E70120E3E7A1220010DB
:102D60000040054070B5EFF305833F201840103850
:102D7000EFF3108472B6194B1B68002BFBD0BFF326
:102D80005F8F012319008140154A5163154A12785B
:102D90001500C5402B4214D0114B5D6A8300124EC2
:102DA0009B599D4206D38300104D5B598A430D49C0
:102DB0000A7007E00A4A031D9B00995899500023A6
:102DC00000E00023BFF35F8F044A0021116084F309
:102DD0001088002B00D0984770BDC046280100D055
:102DE00000400540AF1D0220781D02207C17022004
:102DF00010B50100024A0348FFF736F910BDC0467E
:102E0000D04D0110AA1D0220044B5B6A034A906A50
:102E10001900536A9942F9D17047C04600400540F5
:102E2000074B5B6A8B4204D2054B5B6AFAE7044BA3
:102E30005B6A8B4203D1024B9B6A8342F7D3704794
:102E40000040054070B504000D00FFF7DDFF0200F3
:102E50000B0020002900801859418B4202D804D170
:102E6000824202D901204042C117002902DBFFF74C
:102E7000D7FF70BD024B034A3D21034800F0C6FB5B
:102E80005C4B0110644E0110784B011070B50400CA
:102E90000D00EFF3108672B61B4B1B68002BFBD0A6
:102EA000BFF35F8F002D1CD0200000F067FD174B93
:102EB00083420BD01900200000F068FD01212000A2
:102EC00000F04CFD0123A340114A1360A400114BF4
:102ED000E550BFF35F8F0C4B00221A6086F3108819
:102EE00070BDA2000B4B0021D1500122A2400A4923
:102EF0000B7893430B700549200000F071FD002111
:102F0000200000F02BFDE4E7280100D0652D001023
:102F1000386005407C170220AF1D0220F0B5DE4668
:102F200000B584B00400150001921E000293FFF763
:102F30006BFF03958E4202D84ED185424CD9EFF3F8
:102F4000108B72B6274B1B68002BFBD0BFF35F8F33
:102F5000254A17780125A540EBB23B431370234B5C
:102F60005D63221D92000199D150A2002049029870
:102F700050501B6A2B4212D11C4B1B6C2B4208D0A9
:102F80000020BFF35F8F174B00221A608BF310886D
:102F900023E0184B184AC121184800F037FBFFF70F
:102FA00033FF8E4214D802D1039B834210D80E4BBC
:102FB0001B78BB420ED00D4B1D625D631F20044089
:102FC0000123A3400E4A1360074B1F701E38D8E739
:102FD0000020D6E70120D4E7012004B004BC9346CA
:102FE000F0BDC046280100D0AF1D022000400540C2
:102FF000781D0220F44D01107C4E0110184E011076
:1030000080E200E010B5EFF3108472B60A4B1B6843
:10301000002BFBD0BFF35F8F01238340074A13626D
:1030200007490A789A430A70BFF35F8F024B002268
:103030001A6084F3108810BD280100D000400540BC
:10304000AF1D022070B504000E001500FFF768F8F0
:103050000100200000F006F8A680E580BFF35F8F36
:1030600070BD0000024B9C466144890001607047BE
:103070004000003470B504000D00FFF751F8010066
:103080002000FFF7EFFFFF2323716571BFF35F8F10
:1030900070BD10B50021FFF7EDFF10BD10B5FF2189
:1030A000FFF7E8FF10BD0000034B9C466144890018
:1030B0000160BFF35F8F70474000003410B504001B
:1030C0000120FFF73BF801002000FFF7EDFF10BDE6
:1030D00010B500291ED0037B99421BD84B005B180A
:1030E000033B0468A4466344002919D0002A1DD07C
:1030F000914221D0002A25D0047BA24222D8046824
:1031000050008018033820188170197800291FD1C9
:103110001A7010BD104B114A6921114800F076FA5F
:10312000104B114A70310E4800F070FA0F4B0E4AE6
:1031300071210B4800F06AFA0D4B0B4A72210848C6
:1031400000F064FA044B054A6921054800F05EFA74
:1031500041701A70DDE7C046944A0110F05001102A
:10316000B04A0110044B0110FC500110104B01102B
:103170001C4B011070B506000D001400002914D07E
:10318000002A14D0806873689847002806D022006F
:1031900029003000FFF79CFF280007E02A002100EB
:1031A0003000FFF795FF200000E0100070BD080020
:1031B000FCE7000010B50023437301338373037BE6
:1031C000C3730123027B9A4214D9002B0CD0027BDB
:1031D000934209D85A00D218033A01688C466244D7
:1031E0000133DBB25370EDE70B4B0C4A69210C48FD
:1031F00000F00CFA002A09D0924207D80168530067
:103200009A18033A8A180023537010BD024B034AE0
:103210006921034800F0FAF9944A0110F0500110B6
:10322000B04A011010B5017342608360FFF7C2FF1E
:1032300010BD000070B50400081E00D170BD00294B
:1032400034D0237B994231D84B005B18033B226872
:10325000944663445A78002AF0D02DD0237B9A42BA
:103260002AD853009B18033B21688C4663445D7841
:1032700000215970002825D0237B984222D8430092
:103280001B18033B21688C466344002159700100E0
:103290002000FFF76FFF060029002000FFF7CAFF9C
:1032A000020031002000FFF765FFC7E7084B094A1D
:1032B0006921094800F0AAF9054B064A6921064828
:1032C00000F0A4F9024B034A6921034800F09EF97B
:1032D000944A0110F0500110B04A011070B5050079
:1032E0000C001600002928D02DD0037B99422AD843
:1032F0004B005B18033B0268944663445A78002AEB
:1033000027D19A78002A2AD11978FFF793FF030072
:10331000002E03D0EA7B002A27D1EC73002B37D193
:10332000002C49D02B7B9C4246D82B6861000C199D
:10333000033C1C190023637070BD224B224A3821C4
:10334000224800F063F9224B224A6921224800F00A
:103350005DF9224B1C4A3A211C4800F057F9204BDA
:10336000194A3B21194800F051F9002A0AD0297B5B
:103370008A4207D851008A18033A29688C46624469
:103380005470CAE7124B134A6921134800F03EF902
:10339000002B0BD02A7B934208D843001B18033B19
:1033A0002A689446634400229A70B9E7084B094A98
:1033B0006921094800F02AF9054B064A69210648A7
:1033C00000F024F930500110105101103850011054
:1033D000944A0110F0500110B04A01107C500110C5
:1033E000A450011070B504000A00457B2900FFF7C6
:1033F00075FF6073280070BD70B50400002966D0A9
:10340000437B8B420ED0002911D0037B99420ED80A
:103410004B005B18033B0268D0188378002B0CD15B
:10342000002055E00121FFF7DDFF012050E0294B8E
:10343000294A6921294800F0E9F8002B1FD0227B96
:1034400093421CD825685A00D318033BEA18EB5C5A
:103450008B421AD0002B1BD0227B934218D85A00E3
:10346000D318033B2268D21853788B4216D0002B16
:10347000F0D11B4B1B4A67211B4800F0C7F8154BC6
:10348000154A6921154800F0C1F84378137007E028
:10349000104B114A6921114800F0B8F84378537075
:1034A00000238370437001222000FFF717FF020002
:1034B000617B814205D02000FFF75CFE6073012034
:1034C00006E00A4B074A6D21074800F09FF80020EC
:1034D00070BDC046944A0110F0500110B04A01106E
:1034E000C85001102451011038500110D050011063
:1034F00070B5264B264A1A60264B274A1A60274B7E
:103500009A68254B9343FAD1254C264B9C4202D214
:1035100008CC9847F9E700F031F91E4B224A1A60AF
:103520001E4B9B68DB43DB01FAD1204B40229A679C
:103530005A671A67DA661E4C03E02000FFF7A9FD00
:1035400008341C4B9C4206D26379002BF5D0200036
:10355000FFF7A4FDF4E7184CA168184DC02228001D
:1035600002F036FEA560FCF77EFE002800D000BE0B
:10357000FEF7C6FD00F096FBFFF7AAF9104C01E03C
:1035800008CC98470F4B9C42FAD370BD00E0004036
:10359000BFCDFBFE00F00040FE7F3C0000C00040BD
:1035A00090110220A0110220FFFFFF0100F0014056
:1035B000801102209011022000ED00E000000020A8
:1035C000A0110220A811022000BEFDE703000A4A54
:1035D0001268002A08D0084A1068C318074A9A429D
:1035E00006D3054A13607047034A05491160F2E7A4
:1035F00001204042F7E7C0463019022000000420B5
:10360000D83F022010B5FFF7DFFF000010B582B0F1
:103610000C001900002A0CD0084B002A0BD0019294
:10362000009323000200064802F06AFF0120FFF722
:10363000CBFF044BF1E7034AF1E7C0463C510110D0
:103640004C510110F44401100FB400B583B0084888
:1036500002F026FF049B002B07D005A9019118005A
:1036600002F02CFF034802F01BFF0120FFF7ACFF24
:103670007C5101108C510110F8B5DE4657464E467C
:103680004546E0B505000F0092461E000A9B9E428B
:103690004ED3330E994636020A9A0023300049462B
:1036A00001F06CFD80466C006419A4002E4B9C4612
:1036B00064446368834200D260602B1FDBB29B4688
:1036C000012B3BD9C0239B012343802212011A60A6
:1036D000AB00264A9958002905D0506901F00CFD2D
:1036E00001300138FDD153465A0123685A40E02386
:1036F0001A4080235B0123431A605A46012A28D9C5
:1037000080239B012343802212011A604346636099
:10371000424600233000494601F030FDAD00134B16
:10372000585101203CBC90469946A246AB46F8BD94
:103730000F4B104A2D211048FFF768FF012FC1D110
:10374000C0239B01234303221A60A368DB07FCD537
:10375000C9E72168794003220A401A60A368012260
:10376000BA401A42FAD0CBE70080004090180220FD
:1037700090510110F4510110A451011030B583B0E3
:103780000C2000F027FBFEF7B1FC00280DD0002331
:10379000092B05D899002D4A2D4888500133F7E7A9
:1037A0002A4B2C4A5A6203B030BD2B4B00229A6739
:1037B00000F07EFB294B01221A60274B5B6C012B2A
:1037C000FBD1274B03221A60234B9B6B012BFBD1B0
:1037D000022400940533234A0121234800F06EFAA5
:1037E00000940523214A0121214800F067FA214B6A
:1037F0000093002202210420FFF73EFF1E4D00959A
:103800002B00002201210520FFF736FF104C009409
:103810002300002200210720FFF72EFF0094230041
:10382000002200210820FFF727FF0A4B0093230006
:10383000002200210920FFF71FFF00952B00002226
:1038400000210620FFF718FFADE7C04690180220C0
:10385000006CDC021BB70000008000403CB0004060
:1038600030B00040002F68590080024000389C1C96
:1038700000C00240001BB700405973078000014B95
:10388000C058704790180220074B9B68103080008A
:103890001950BFF35F8FBFF35F8F044B0021196096
:1038A00082F310887047C04600ED00E0240100D08C
:1038B00010B5091A04394808090B05D14005400D17
:1038C000044B184380B210BD034B044A8C210448BA
:1038D000FFF79CFE00E0FFFF04520110EC530110C3
:1038E0001452011010B5091A04394C08090B08D1FB
:1038F0004905490D064A11430180064B2343438085
:1039000010BD054B054A94210548FFF77FFEC046D0
:1039100000F0FFFF00F8FFFF04520110F853011000
:103920001452011001238340034A10681840431EBB
:103930009841C0B27047C04600E100E0002904D0C1
:10394000034B1860034B18607047034B1860FBE78C
:1039500080E200E000E100E080E100E010B501233A
:1039600083401800FFF7EAFF10BD000001238340E9
:10397000014A13607047C04600E200E0024B9B68BA
:1039800010308000C058704700ED00E070B50400B2
:103990000D00EFF3108672B60C4B1B68002BFBD0AA
:1039A000BFF35F8F2000FFF7E9FF094B984201D07A
:1039B000A84205D1320029002000FFF765FF70BD45
:1039C000044B054A70210548FFF720FE240100D072
:1039D000CD0100105C520110D0530110145201109F
:1039E000F0B5CE46474680B583B006000D00EFF334
:1039F000108872B6574B1B68002BFBD0BFF35F8F4C
:103A0000554B9A6834001034A300D758534B9F424B
:103A100007D0AF4200D19BE00197514BFB1A2F2BEF
:103A200009D9424639003000FFF72EFF03B00CBC25
:103A300090469946F0BD3000FFF774FF81460021A3
:103A40003000FFF78BFFBFF35F8FFCF70CFC002803
:103A500001D0844219D10123019C9C432300404999
:103A60005B1A5B4148495943090D49B20022A368DA
:103A7000AB4212D00622A256002A0DDB53009B183F
:103A80009B002200364CE418F1E72021354B364AE2
:103A9000FF313648FFF7BAFD2200AB4251D106256F
:103AA0006557002D39DB6B005B199A002C4B9B1876
:103AB0009A68A260DA79E27106229A56A2719B791D
:103AC0005BB2002B10DABD200002A0806B005B19F6
:103AD0009B00234AD318264A1178997115704946DC
:103AE0003000FFF73BFF9CE7201D6B005B199B003C
:103AF0001B4A9B181A1D9B88D90A1C2907D15905F6
:103B00004915023149005118FFF7D2FEDDE7194B84
:103B1000194A9A211548FFF779FD00280CD1002A8F
:103B200008D0FF239371154B9380114B1A78A27123
:103B30001970D4E7094FF8E7201D1149FFF7D2FEAD
:103B4000CDE7AA210F4B084A49000848FFF75EFD60
:103B5000024F66E7240100D000ED00E0CD01001027
:103B6000A8060220705301102054011014520110B5
:103B7000AC1D0220585301101054011000BDFFFF6E
:103B8000E206022094530110AAAA000010B50323F4
:103B900004009C43064A9446644422681840C000CE
:103BA000FC3383409A43130081400B43236010BDD4
:103BB00000E400E0F8B50400012606432D4BF31A9B
:103BC0002F2B28D8FCF74FFB00282BD0EFF31087C2
:103BD00072B6294B1B68002BFBD0BFF35F8F23000D
:103BE000244D5B1B5B412E4D5D432D0D6DB2234B70
:103BF0009B6880001B58B3421BD00022032A32D896
:103C000053009B189B001B49CB189B795BB2AB42BE
:103C10001FD00132F2E77221194B1A4AFF311A48BC
:103C2000FFF7F4FCBA21194B164A49001648FFF772
:103C3000EDFC124B9B68164A1A50164B1A78A2716B
:103C40001D70BFF35F8F0C4B00221A6087F3108842
:103C5000F8BD08005300991889004118FF268E719D
:103C60000D4A8A80E9E786210C4B064AFF31064857
:103C7000FFF7CCFCA8060220240100D000ED00E0F4
:103C80009C5301103454011014520110C4530110FC
:103C9000CD010010AC1D022000BDFFFFC850011077
:103CA000AAAA000010B500241F2C05D880212000EE
:103CB000FFF76CFF0134F7E710BD0000F0B5CE460A
:103CC00000B504000E0091461F000C2001F014FA0C
:103CD000050043011B1A9901C91AC9000918890175
:103CE000484601F009FA0200103A98235B009A4214
:103CF00033D87B1E062B36D8069B013B062B32D8C9
:103D0000069B9F4235D34B461A09AA4237D33F043C
:103D1000069B1D032F432368002B36DB234B9C425D
:103D200041D080256D01224B1D60224B1D60224A2F
:103D300092682B009343FAD12660A060221DC02315
:103D40009B01134321221A602268002AFCDAE760F3
:103D500008221A6004BC9146F0BD184B184A16217F
:103D60001848FFF753FC184B154A19211548FFF75F
:103D70004DFC164B124A1F211248FFF747FC144B0B
:103D80000F4A22210F48FFF741FC22683F231340CE
:103D9000B342C3D1A3681B051B0D8342BED1E368A8
:103DA000002FBBD1D6E78025AD01BCE700C00240A3
:103DB00000E0004000F0004000C0004050540110FE
:103DC000345501106C540110B45401100055011009
:103DD0001855011080239B000343014AD3627047AA
:103DE00000800540024B1A68024B5A607047C0467B
:103DF000341D02200080054010B50200144B8020C5
:103E0000C0051860134B1448186000291BD0134BD1
:103E1000E021C9041960002A00D132325001801A11
:103E20008000801800010E4B186080235B049842CC
:103E300002D30B4B0B4A1A60FFF7D4FF074B8022CB
:103E4000D2051A6010BD024BE021C9041960E2E7F7
:103E500000B0054008200140FCFF010000A0054023
:103E6000341D0220FFFFFF0010B5030010000C4AB4
:103E70008024E4051460002B0DD001221343094A6D
:103E8000094CD461094C5C40146251629362002178
:103E9000FFF7B2FF10BD034B0022DA61F7E7C0461F
:103EA00000B0054000800540D3C007B02D3FF84F5B
:103EB000064BAA2212011A602F22DA60044B054A2F
:103EC0001A60024B5B68002BFBDA7047004002402F
:103ED0000060024000B0FA009A4200D28854704755
:103EE000704710B5002802D00B684968984710BD8C
:103EF000010000200A681378303BDBB2092B08D898
:103F000083001B185B00501C08601078C018303804
:103F1000F0E77047F0B5DE4657464E464546E0B5F9
:103F200083B093461F000C9B9A460D9C0E9B9946AE
:103F30000F9B9B0703D0B8460F00060022E00192BA
:103F4000A34688464E46B9460700B44207D2551CE0
:103F50004B4641462020B84701342A00F5E73D0092
:103F60004F465C46019B9B46B1464646B8463700E5
:103F70002E0007E0013C551C5346185D43463900AE
:103F8000B0472A00002CF5D135003E0047460F9B74
:103F90009B0707D4100003B03CBC90469946A2464C
:103FA000AB46F0BDB0464E46B9462F005D46531BAA
:103FB000B342EFD2541C4B4641462020B847220062
:103FC000F5E7F0B5CE46474680B585B094469846AD
:103FD0000C9D0D9C0EAB1B789946109A119B129E5E
:103FE000B7071BD4002B08D0F70706D54F46002F84
:103FF00002D10C37374200D0013B944208D21F2C2B
:1040000006D830272F550134F7E730272F550134D4
:10401000F70703D59C4201D21F2CF6D9F70615D518
:10402000770505D4002C03D0944224D09C4222D0A2
:104030000F9A102A2BD00F9A102A30D00F9A022AEA
:1040400035D01F2C02D830222A5501341F2C05D818
:104050004A46002A31D02D222A5501340396029374
:104060000194009543466246FFF754FF05B00CBC2F
:1040700090469946F0BD621E012C06D00F9F102F6E
:1040800001D01400D4E7023CD2E71400D0E7B20616
:10409000D1D41F2CCFD878222A550134D1E7B206CB
:1040A000CCD51F2CCAD858222A550134C9E71F2C59
:1040B000C7D860322A550134C3E7720703D52B22D3
:1040C0002A550134CAE73207C8D520222A550134BF
:1040D000C4E7F0B5DE4657464E464546E0B593B0D8
:1040E00081468A46089209931CAB10CB1B789B46ED
:1040F0001E9D219B9846002C03D1102342469A43D3
:1041000090468023DB0046461E4042461A4212D0AB
:10411000002C22D000260EE03033D9B2771C0AAB37
:1041200099552900200000F0E7FFAC4216D31F2F5D
:1041300014D83E0004002900200000F0DDFFCBB2BF
:10414000092BE9D94246920605D54121C918C9B2C1
:104150000A39C9B2E2E76121F8E72700434606932E
:10416000209B05931F9B049303955B460293019745
:104170000AAB0093099B089A51464846FFF721FF76
:1041800013B03CBC90469946A246AB46F0BDF0B594
:10419000DE4657464E464546E0B595B00890099133
:1041A0000A920B931E9E1F9C20AB1B789B46229B62
:1041B0009946239D269B9A463300234303D110330F
:1041C00052469A4392468023DB0057461F40524690
:1041D0001A4219D0330023432DD0002714E0303386
:1041E000DAB27B1C98460CABDA554A462B003000FD
:1041F000210000F0C3FFA5421FD819D043461F2B52
:104200001BD8474606000C004A462B003000210010
:1042100000F0B4FFD3B2092BE1D95246920605D57E
:104220004122D218D2B20A3AD2B2DAE76122F8E7D2
:10423000B145E3D901E00023984653460693259BF8
:104240000593249B04934B4603935B46029343469A
:1042500001930CAB00930B9B0A9A09990898FFF7FE
:10426000B0FE15B03CBC90469946A246AB46F0BDA8
:10427000F0B5DE4657464E464546E0B591B083461A
:104280008A460C9298461A9C08941B9D0995220018
:104290002B002000290001F006FA002800D0E5E0FC
:1042A00001225242D34B2000290001F0F7F90028E7
:1042B00000D0DBE001225242CF4B2000290001F068
:1042C000D7F9002800D0D1E000220023089D280063
:1042D000099E310001F0CCF9002800D0DDE00898FB
:1042E0000999069007918023DB001E9A1A400D92CF
:1042F0001E9A1A4201D106231C93069807990400BE
:104300000D000A000600024300D1CDE0080D400573
:10431000400DBA4CA44660440A03120BB84B134339
:104320001F0001F0D3F9B74AB74B01F056F9B74A6D
:10433000B74B01F02BF904000D000022B54B300003
:10434000390001F01AF9B44AB44B01F046F9020001
:104350000B002000290001F019F901F0CFF9814686
:1043600001F0B4F904000D00AD4AAE4B01F035F98F
:104370000022AD4B01F00AF901F0C0F90600AB4A8A
:10438000AB4B2000290001F028F904000D0030009B
:1043900001F09CF9A74AA84B01F01FF902000B009D
:1043A0002000290001F0E9F804000D0002000B00D4
:1043B00001F013F90A900B91A04BF31800261F058A
:1043C00022002B002000290001F0E0F80E900F9150
:1043D00022002B0000208021C90501F0CEF8040046
:1043E0000D000022964B0A980B9901F0D8F8002294
:1043F000944B01F0CBF802000B000A980B9901F0E6
:10440000CEF80022904B01F0C1F802000B000A9890
:104410000B9901F0C4F802000B002000290001F004
:10442000B5F802000B000E980F9901F0B8F80022C1
:10443000734B01F0ABF832003B0001F0CEF8060000
:104440000F0004000D00069A079B01F027F90028D1
:104450002CD001235B429C46E1440022794B300082
:10446000390001F09CF804000D001FE01E9B04932E
:104470001D9B03931C9B0293089A099B0092019336
:1044800043460C9A5146584600F0F8F811B03CBC2F
:1044900090469946A246AB46F0BD069580231B0682
:1044A0009C46664407961EE7002399464B466333B5
:1044B000C62B1FD804261E9B1B0527D52B00234384
:1044C00010D0624A624B0698079901F0DFF8002885
:1044D00000D183E000225F4B0698079901F0C8F8ED
:1044E00000287BD01C9B4B4506DD4A46981A431E8C
:1044F0001C9303E00526DEE700231C938023DB00EA
:104500001E9A1A431E920026002399461D9B9E4226
:104510006ED29F1B02231E9A1A400A921E9A1342C1
:1045200002D0002E00D000274B46002B07D02200DF
:104530002B000698079901F032F8069007910022A7
:1045400000230898099901F093F8002800D085E02D
:10455000414B1E9A1340049303971C9B0293069BA6
:10456000079C0093019443460C9A5146584600F02C
:1045700085F8002E00D189E71E9B9B067AD545253C
:10458000441C4346020051462800D8474B46DA17E0
:104590009B18534005220592013E04960022039287
:1045A0000A3202924A46D00F0190009343462200FD
:1045B00051465846FFF78DFD0A9B002B00D165E759
:1045C00002005F460C9E1D9D931BAB4254D2541CAF
:1045D000434651462020B8472200F5E71C9B002B9C
:1045E00094D00D9B002B91D01C9B013B1C938DE71D
:1045F00000278FE7FFFFEF7FFFFFEFFF01FCFFFFCB
:104600000000F03FFB799F501344D33FB3C8608B49
:10461000288AC63F0000F83F61436F63A787D23FF7
:1046200071A379094F930A400000E03F1655B5BBCE
:10463000B16B0240EF39FAFE422EE63FFF03000065
:1046400000002C4000002440000018402D431CEBCB
:10465000E2361A3F80842E41FFF7FFFF069C079D3C
:104660002200290080200006844661440B00069247
:1046700007936DE7652583E7100007E7F0B5DE4691
:1046800057464E464546E0B595B00690079193468D
:104690009946209F1E9A1F9B1000190001F003F8F5
:1046A000002831D101225242BF4B1E981F9900F0C1
:1046B000DFFF002837D101225242BC4B1E981F99C0
:1046C00000F0ECFF00283DD10022B94B1E981F9945
:1046D00000F0E4FF002850D10022B64B1E981F992D
:1046E00000F0C6FF002848D1002200231E981F9921
:1046F00000F0BEFF002850D100239846229B5B05A6
:1047000000D4B6E0002458E0229B0393219B02933F
:1047100003230193A84B00934B465A4607990698EA
:10472000FFF7F8FB0EE1229B0393219B02930423E6
:104730000193A24B00934B465A4607990698FFF700
:10474000E9FBFFE00423229A1A4022990B4210D081
:104750009B4B002A0FD004222299039121990291A8
:10476000019200934B465A4607990698FFF7D2FBF1
:10477000E8E0944BEDE70322EEE7229B0493219BB4
:10478000039302971E9B1F9C009301944B465A462D
:1047900007990698FFF76CFDD4E01E9A1F9B002036
:1047A000002100F0EAFE1E901F9101239846A5E724
:1047B0000CAB30221A55013F01341F2C01D8092FB0
:1047C000F6D81E981F9900F099FF050000F07EFFB3
:1047D00002000B001E981F9900F0CFFEFA007A4BE2
:1047E0009B181A685B680A920B9300F0F6FE08901B
:1047F000099100F0A7FF060000F064FF02000B0023
:104800000898099900F0B9FE0890099100226F4BB1
:1048100000F044FF00282ED00136300000F052FF97
:1048200002000B000A980B9900F028FF002801D025
:1048300001350026002F2CD1280000F047FF020090
:104840000B001E981F9900F098FE06000F00002232
:104850005E4B00F00DFF002842D100225B4B300080
:10486000390000F01BFF00283AD1EB0738D501359D
:1048700036E0062746E70022544B0898099900F0D5
:10488000F7FE0028D6D1002E01D0F307D2D501368D
:10489000D0E7AA461F2C11D8013F0A21300000F0B2
:1048A0002BFC651C30310CAB19550A21300000F08F
:1048B00023FC092E26D906002C00EBE7554604E020
:1048C0000CAA302111551F0001341F2C02D87B1E69
:1048D000002FF5D11F2C03D80CAB2E221A55013412
:1048E0001F2C14D80A21280000F0DEFB661C303192
:1048F0000CAB19550A21280000F0D6FB051E05D087
:104900003400EDE72B0055461C00DEE7340003239E
:10491000229A1340012B1CD01F2C06D84346002B93
:1049200032D00CAB2D221A550134229B0393219BCC
:10493000029301940CAB00934B465A460799069894
:10494000FFF7E8FA15B03CBC90469946A246AB4644
:10495000F0BD219B002B13D04346002B02D10C331A
:1049600013420FD0219B013B2193190003E00CABB4
:1049700030221A5501348C42CED21F2CF7D9CBE706
:104980002199F8E72199F6E7229B5B0704D50CAB48
:104990002B221A550134C8E7229B1B07C5D50CAB47
:1049A00020221A550134C0E7FFFFEFFFFFFFEF7F22
:1049B00065CDCD4165CDCDC14C550110505501108F
:1049C0004455011040550110385701100000E03FD8
:1049D000F0B5DE4657464E464546E0B593B08246B2
:1049E0008B4690461193002900D1ECE200275546F2
:1049F000119B1878002800D1E8E2252809D07C1CFA
:104A000043463A005946A847119B013311932700AA
:104A1000EEE70133119300241DE00B00303BDBB2C5
:104A2000092B37D92A293AD000230A93119B1A78E7
:104A30002E2A44D000239A46119A1378683BD9B2A3
:104A4000122900D980E08B00CB49CB589F46012327
:104A50001C4301321192119A11780B00203BD8B2FD
:104A60001028DAD88300C548C3589F4602231C4348
:104A700001321192EFE704231C4301321192EAE75D
:104A800008231C4301321192E5E710231C43013235
:104A90001192E0E711A8FFF72BFA0A90C6E71C9BDA
:104AA0001A1D1C921868002804DB0A90119B013320
:104AB0001193BBE702231C4343420A93F6E780228B
:104AC000D20014435A1C11925A781300303BDBB2C7
:104AD000092B04D92A2A07D000239A46ACE711A84B
:104AE000FFF706FA8246A7E71C9B1A1D1C9218685E
:104AF000002804DB8246119B013311939CE70020C0
:104B0000F8E780235B002343511C119152786C2AF3
:104B100001D01C0018E0C0239B001C4301311191FF
:104B200012E080232343511C11915278682A01D04E
:104B30001C0009E0C0231C430131119104E08023D3
:104B40005B001C4301321192119B18780300253B36
:104B5000DAB2532A00D92CE29300894AD3589F46EF
:104B600080239B001C4301321192EDE780235B0000
:104B70001C4301321192E7E7782809D0582838D031
:104B80006F2838D0622838D010239C430A2600E0D2
:104B90001026582833D0692803D0642801D00C226D
:104BA0009443630501D50122944369282AD06428DF
:104BB00028D0A30500D59FE0E30500D5B8E0630643
:104BC00000D4CAE01C9A111D1C911168FF220A40F2
:104BD00005940A9B04935346039302960023019382
:104BE000009243463A0059462800FFF772FA070040
:104BF00027E01026CDE70826CBE70226C9E72022CA
:104C00001443C8E7A30520D4E30550D4630666D552
:104C10001C9A111D1C911168FF220A40D317D1184C
:104C2000594005940A9B0493534603930296D20F6E
:104C30000192009143463A0059462800FFF749FA8D
:104C40000700119B01331193D2E61C9BDA1D07214B
:104C50008A43110008311C91116853689C46DB1788
:104C60000C930D930C9A0D9B100048400E906246D9
:104C700053400F930E980F990C9A0D9B801A9941EF
:104C80000E900F9108940A9B07935346069304963F
:104C9000002305936346DA0F029200900191434688
:104CA0003A0059462800FFF772FA0700C9E71C9A34
:104CB000111D1C911268D317D118594005940A9BF5
:104CC0000493534603930296D20F019200914346F8
:104CD0003A0059462800FFF7FCF90700B1E7230620
:104CE00005D51C9A111D1C910023D25E96E71C9AD3
:104CF000111D1C91126891E71C9BDA1D07218A4344
:104D0000110008311C9108940A9B0793534606939F
:104D1000049600230593029313685468009301944A
:104D200043463A0059462800FFF731FA070088E762
:104D30001C9A111D1C9105940A9B049353460393DE
:104D40000296002301931368009343463A005946A4
:104D50002800FFF7BEF9070073E7230606D51C9A63
:104D6000111D1C9112681204120C31E71C9A111DBE
:104D70001C9112682CE7C04658550110A45501102B
:104D8000E855011046281AD01C9B0733072293438D
:104D90001A0008321C9204940A9A03925246029214
:104DA0005C681B680093019443463A00594628000A
:104DB000FFF764FC0700119B0133119318E62023D1
:104DC0001C43E1E7672801D0472802D180231B015B
:104DD0001C43452801D0472801D120231C431C9B9C
:104DE0000733072293431A0008321C9204940A9A4C
:104DF0000392524602925C681B68009301944346FA
:104E00003A0059462800FFF733FA0700119B013397
:104E10001193EDE502231A002240924623421FD04F
:104E200001241C9B1A1D1C927A1C9146187843463B
:104E30003A005946A8475346002B16D1119B01331F
:104E400011934F46D4E5561C434659462020B84797
:104E5000230032005C1C9D42F5D83D001700E0E7BE
:104E600001233A002F000A9DF4E74A46A9460A9D0D
:104E700006E0571C434659462020C84734003A00F4
:104E8000661CA542F5D84D469146D7E71C9B1A1DD6
:104E90001C921B6899465346002B00D1013B4E469D
:104EA00001E0013613003278002A02D05A1E002B8E
:104EB000F7D14B46F21A10928023DB0026001E40E9
:104EC0001C4203D0524501D95346109302231A00C5
:104ED00022400B92234205D03A0037004C46A946A7
:104EE000554620E03A00109B5F46B3462E0006E090
:104EF000551C434639002020B04723002A005C1C83
:104F00000A999942F4D835005E46BB4610943700A2
:104F10004C46A946554606E01D000134561C434642
:104F20005946C84732002078002804D0002FF4D01A
:104F30006B1E002DF0D117004D460B9B002B03D1AB
:104F4000119B0133119353E50A9F109B06E0561CF9
:104F5000434659462020A847230032005C1C9F424C
:104F6000F5D81700ECE721231C431C9B1A1D1C924B
:104F70001B6800930594082304935346039310235E
:104F800002930023019343463A0059462800FFF755
:104F9000A0F80700119B0133119329E57C1C4346BF
:104FA0003A0059462520A847119B01331193270049
:104FB0001EE57C1C43463A005946A847119B013325
:104FC0001193270014E50B4B9A460FE5AA46474577
:104FD0000DD343465A1E434659460020D047380059
:104FE00013B03CBC90469946A246AB46F0BD3A0091
:104FF000F1E7C046E13E00100EB410B585B00100E7
:1050000007AC08CC03940122009452420348FFF7F6
:10501000DFFC05B010BC08BC03B01847D93E001037
:1050200000B585B0029003910121009313004A421C
:1050300002A90248FFF7CCFC05B000BDE33E00101A
:1050400001480421014B1847F0060220715000105E
:1050500010B5010018231B8814221088984710BD32
:1050600010B5010018231B8816221088984710BD20
:10507000F0B5C64600B507000E000025012398468E
:1050800000E00135B5420AD2AC003C192068FFF7B8
:10509000DFFF20600028F4D100239846F1E7404666
:1050A00004BC9046F0BD0000124A936F9B0815D2D5
:1050B0009066D166002905D0FFE7FFE7FFE7516F53
:1050C000106F704704B580210906C21751400028AF
:1050D00000D0C8430FF0B0F9002104BDF0B5146E44
:1050E000556E576F166FFFF7E3FF146655665767E7
:1050F0001667F0BD000000D0114A936F9B0813D2D1
:1051000010665166002905D0FFE7FFE7FFE7516F02
:10511000106F704704B5002801D00020C0430FF085
:105120008BF9002104BDC046F0B5146E556E576F63
:10513000166FFFF7E5FF1466556657671667F0BDF3
:10514000000000D094464E4A926F9208624601D207
:1051500030E0C046F0B54A4EB56F6D08FCD3346EF2
:10516000756E776F366F00F025F89446444A1466E2
:105170005566576716676246F0BDC0469446404A7A
:10518000926F9208624601D258E0C046F0B53C4E9C
:10519000B56F6D08FCD3346E756E776F366F00F0A7
:1051A0004DF89446364A1466556657671667624648
:1051B000F0BDC046002B24DB11D000293EDA00B53B
:1051C000C943404200D1013100F038F8C9434042A0
:1051D00000D10131DB43524200D1013300BD002A2E
:1051E000EBD1002801D1002905D00020C90FC90743
:1051F00001D1C043410800B50FF016F90022002389
:1052000000BD00B500290ADBDB43524200D1013367
:1052100000F014F8C943404200D1013100BDC94338
:10522000404200D10131DB43524200D1013300F052
:1052300005F8DB43524200D1013300BD002923D1E0
:10524000002B18D1002A0CD0BC460D4F38667A6668
:1052500000210023FFE7FFE7FFE77A6F386F67461B
:105260007047002801D00748010000B50FF0DCF8B6
:105270000022002300BD02000B0000200021704727
:10528000000000D0FFFFFFFF002B00D0BDE0130C9B
:1052900026D1002AE7D080B4104F39667A66FFE73E
:1052A000FFE730B4040C7B6F396F1B0423433B666C
:1052B000FFE7FFE7FFE7C04684B27B6F3D6F1B044B
:1052C00023433B66FFE7FFE7C04600232C042D0C79
:1052D0007A6F386F00196941B0BC7047000000D088
:1052E000F0B594460025140E01D112020835140FB2
:1052F00001D112010435940F01D192000235D40F6F
:1053000001D152000135D40B0134254F7C66254C68
:105310003C660E0C93B2FFE7FFE7FFE73C6F664386
:10532000360C7703BE467343DF0B5B04C01AB941EA
:10533000130C7343DB18C91ACE086643360CB64407
:1053400093B273431F0F1B01C01AB941130C73436F
:105350001F0B1B05C01AB941860D8F023E436643E1
:10536000360C092D24DB520A7243801A7703460A51
:105370006643360C16235B1BDE40DF40BF196446D4
:105380006643821B7046043506330100D940A840AD
:10539000C01900D30131A24206D20023F0BD0000A3
:1053A000000000D0FFFFFFFF121B0130F3D3F1E735
:1053B00009277F1BFE406446A2B27243801A00D2C6
:1053C0000139220C7243130C1204821A99410B000A
:1053D0007046043513370100F940A840801900D306
:1053E0000131002B02D1A2420AD2F0BD013000D31C
:1053F0000131121BFAD2013BF8D1A24200D2F0BD1A
:10540000013000D30131121BF7E7F0B51C0C00D0BE
:1054100080E00CB400251C0A04D11B02160E334395
:10542000120208351C0B04D11B01160F3343120165
:1054300004359C0B04D19B00960F33439200023538
:10544000DC0B02D192185B4101351C0097186441B6
:105450000134464F7C66464C3C660E0CFFE7FFE786
:10546000FFE7C0463C6F6643360C7703BE4697B2F3
:105470007743C01B00D20139C01B00D201399FB253
:105480007743C91BC91B170C77437E04FF0B801B96
:10549000B941CE086643360C0C2D33DBB644120BF3
:1054A0001F053A431B0B97B27743C01B00D201394B
:1054B0009FB27743C91B170C77433E043F0C801BF8
:1054C000B941860D8F023E43664329277F1BFE406C
:1054D0000C3D7746AF40BF1930BCA2B2ABB27243AD
:1054E0007343801A9941220C7243130C1204801AE0
:1054F000994102000B000137001BA941F9D2781E27
:105500000021F0BD0C277F1BFE4077467F0BAF408C
:10551000FF19E0E700245D1C07D0144F7D66396653
:10552000FFE7FFE7FFE7FFE73C6F95B29EB26543F9
:105530006643401BB141150C1E0C6543664336049F
:105540002F0C3E432D04401BB141994204D202006E
:105550000B0020000021F0BD01D19042F7D3801A4A
:10556000994101349942F2D3F6E70000000000D0DF
:10557000FFFFFFFF48404140484018B41B4B5B68A9
:10558000FC46019308BD04DFD358001018B4174B34
:105590001B68FC46019308BD00DFDD5800109446EF
:1055A000134A926F920809D2624618B40F4BDB6817
:1055B000FC46019308BD0CDF955B00100C4AF0B56A
:1055C000146E556E576F166F6246FFF7EEFF084A6E
:1055D0001466556657671667F0BD18B4034B9B6891
:1055E000FC46019308BD08DF395A0010103D022027
:1055F000000000D0FFB550404240504059404B4061
:10560000594000E0FFB5154F4C00640D03D0BC427B
:1056100004D10C0314D80020090D09055C00640DA9
:1056200003D0BC4204D11C030AD800221B0D1B0569
:1056300001264B4009D44B4003D58B4200D1824216
:10564000FFBD9942FCD19042FFBD0B43DB180343E1
:105650001343F5D0C9434918FFBD0000FF07000000
:1056600000B5FFF7CFFF01D0002000BD012000BD35
:1056700000B5FFF7C7FF804100BDC04600B5FFF78A
:10568000C1FF01D9002000BD012000BD00B5FFF71A
:10569000B1FF01D9002000BD012000BD00B5FFF71A
:1056A000A9FF804100BD012040054A00121804D81E
:1056B0005A00121801D800207047012070470020BE
:1056C000704700000021002805D17047C1174840ED
:1056D000401AFAD0C90713B5064B1B6898470CBC93
:1056E000441CA2401005120B0349091B090519436C
:1056F000114310BD103F02201F04000010B54C00E4
:10570000620D8023D218DB00D21A5B057E2A10DDE1
:105710009E3A13DACC170903490819435242D14083
:10572000640001341532202A05DAD0400843604372
:1057300010BD002010BD0846604310BDC80FC01842
:10574000013810BD18B4044B5B6AFC46019308BDD8
:1057500024DFC15D00100000103D022018B4044B8E
:10576000DB6DFC46019308BD5CDFC95E00100000E4
:10577000103D0220C94211D300B54900490800225A
:1057800000F018F8002904D4002240428A41114652
:1057900000BD80210906002000BD000018B4044BA4
:1057A000DB6EFC46019308BD6CDFCF5D001000008E
:1057B000103D022018B4044B9B6FFC46019308BDBA
:1057C00078DFEB5D00100000103D022018B4044BA0
:1057D000DB6FFC46019308BD7CDF555E00100000C6
:1057E000103D022070B513231C78012C07D0012C2A
:1057F0000EDC022C02DC1C4A1C4B9A6470BD002398
:105800001F2BF4D899001848184A88500133F7E73D
:105810001748FFF725FC05001648FFF721FC023862
:1058200003789B007F2B19DD802229000F4800F0B0
:10583000CFFC022CDDD1104B1A88B5231B029A42F3
:1058400009D10E4B1A880E4B9A4204D10D4B1A887F
:105850000D4B9A42CDD00020FDF7F6FE0B4B0C4AC3
:1058600030210C48FDF7D2FE99580010103D02205F
:10587000534400005346000054380000D83800005C
:10588000494600009C380000594600008857011026
:105890003C580110E857011007B56046002800D1B8
:1058A00000BE01880A0A0230DF2AFAD1C9B2820892
:1058B00004D3028840880004104300E00068024AD4
:1058C0005050039007BD0000103D02200FB403BCF0
:1058D0000CBCF0B50124E407634000E0F0B50C0D0A
:1058E000CF0F661E3605891B640503D3C9434042AA
:1058F00000D30131640D03D0661CF60A07D0E41B07
:1059000000207F00791C89078912803C24031D0D2B
:10591000DF0F6E1E36059B1B6D0503D3DB43524222
:1059200000D301336D0D03D06E1CF60A07D0ED1BBA
:1059300000227F007B1C9B079B12803D2D032F1BA9
:10594000661B58D4A446202E46DA20371400BC40EB
:105950001D00BD40F24033412A4380185941CB0F0E
:1059600005D0C943C04300226442504151416246C0
:105970004D0D28D10D0D07D100281FD0241940410D
:105980004941013A0D0DF9D0640006D3013000D32E
:105990000131002C01D140084000013A0BD4941C85
:1059A000E40A04D112051144DB071944F0BDD907FC
:1059B000204B194300E0D9070020F0BD0029DDD1BC
:1059C000002CDBD1F0BD0132C6074008CD072843CB
:1059D0004908002EE1D0D9E73C2E29DA203E403795
:1059E0001400BC4000D00124F24014431A00BB4014
:1059F0001C43D317ACE7AC46202F08DA203604004E
:105A0000B4400D00B540F84039412843A5E73C2F8C
:105A10000CDA203F40360400B44000D00124F840A6
:105A200004430800B1400C43C117EAE71000190015
:105A3000002494E70000F07FF0B50C0D661E3605DB
:105A4000891BE60A6405640D02D0651CED0A04D0CA
:105A5000002001210905803C2403A4461C0D671E7B
:105A60003F05DB1BE70A6405640D02D0651CED0AE7
:105A700004D0002201231B05803C240377406444AA
:105A800097B484B296B27443070C7E43150C6F43EF
:105A900080B26843361802D3012000043F18300456
:105AA000350C00197D41844688B29AB250430C0CE3
:105AB00062431F0C7C438EB27E43921902D30126AF
:105AC0003604A4191604170C3618674101BC81B2BC
:105AD0009AB25143040C62431B0C5C4380B258439E
